{
  "address": "0x55023170FbA41c8F298Fe8fad8b53d0eFa6eaC5b",
  "abi": [
    {
      "inputs": [
        {
          "internalType": "address",
          "name": "admin",
          "type": "address"
        }
      ],
      "stateMutability": "nonpayable",
      "type": "constructor"
    },
    {
      "inputs": [],
      "name": "AccessControlBadConfirmation",
      "type": "error"
    },
    {
      "inputs": [
        {
          "internalType": "address",
          "name": "account",
          "type": "address"
        },
        {
          "internalType": "bytes32",
          "name": "neededRole",
          "type": "bytes32"
        }
      ],
      "name": "AccessControlUnauthorizedAccount",
      "type": "error"
    },
    {
      "anonymous": false,
      "inputs": [
        {
          "indexed": true,
          "internalType": "bytes32",
          "name": "evidenceHash",
          "type": "bytes32"
        },
        {
          "indexed": true,
          "internalType": "uint256",
          "name": "subjectId",
          "type": "uint256"
        },
        {
          "indexed": true,
          "internalType": "uint256",
          "name": "milestoneNumber",
          "type": "uint256"
        },
        {
          "indexed": false,
          "internalType": "address",
          "name": "attester",
          "type": "address"
        },
        {
          "indexed": false,
          "internalType": "string",
          "name": "schemaName",
          "type": "string"
        }
      ],
      "name": "EvidenceAttested",
      "type": "event"
    },
    {
      "anonymous": false,
      "inputs": [
        {
          "indexed": true,
          "internalType": "bytes32",
          "name": "role",
          "type": "bytes32"
        },
        {
          "indexed": true,
          "internalType": "bytes32",
          "name": "previousAdminRole",
          "type": "bytes32"
        },
        {
          "indexed": true,
          "internalType": "bytes32",
          "name": "newAdminRole",
          "type": "bytes32"
        }
      ],
      "name": "RoleAdminChanged",
      "type": "event"
    },
    {
      "anonymous": false,
      "inputs": [
        {
          "indexed": true,
          "internalType": "bytes32",
          "name": "role",
          "type": "bytes32"
        },
        {
          "indexed": true,
          "internalType": "address",
          "name": "account",
          "type": "address"
        },
        {
          "indexed": true,
          "internalType": "address",
          "name": "sender",
          "type": "address"
        }
      ],
      "name": "RoleGranted",
      "type": "event"
    },
    {
      "anonymous": false,
      "inputs": [
        {
          "indexed": true,
          "internalType": "bytes32",
          "name": "role",
          "type": "bytes32"
        },
        {
          "indexed": true,
          "internalType": "address",
          "name": "account",
          "type": "address"
        },
        {
          "indexed": true,
          "internalType": "address",
          "name": "sender",
          "type": "address"
        }
      ],
      "name": "RoleRevoked",
      "type": "event"
    },
    {
      "inputs": [],
      "name": "ATTESTER_ROLE",
      "outputs": [
        {
          "internalType": "bytes32",
          "name": "",
          "type": "bytes32"
        }
      ],
      "stateMutability": "view",
      "type": "function"
    },
    {
      "inputs": [],
      "name": "DEFAULT_ADMIN_ROLE",
      "outputs": [
        {
          "internalType": "bytes32",
          "name": "",
          "type": "bytes32"
        }
      ],
      "stateMutability": "view",
      "type": "function"
    },
    {
      "inputs": [
        {
          "internalType": "bytes32",
          "name": "evidenceHash",
          "type": "bytes32"
        },
        {
          "internalType": "uint256",
          "name": "subjectId",
          "type": "uint256"
        },
        {
          "internalType": "uint256",
          "name": "milestoneNumber",
          "type": "uint256"
        },
        {
          "internalType": "string",
          "name": "schemaName",
          "type": "string"
        }
      ],
      "name": "attestEvidence",
      "outputs": [],
      "stateMutability": "nonpayable",
      "type": "function"
    },
    {
      "inputs": [
        {
          "internalType": "bytes32[]",
          "name": "evidenceHashes",
          "type": "bytes32[]"
        },
        {
          "internalType": "uint256",
          "name": "subjectId",
          "type": "uint256"
        },
        {
          "internalType": "uint256[]",
          "name": "milestoneNumbers",
          "type": "uint256[]"
        },
        {
          "internalType": "string",
          "name": "schemaName",
          "type": "string"
        }
      ],
      "name": "batchAttestEvidence",
      "outputs": [],
      "stateMutability": "nonpayable",
      "type": "function"
    },
    {
      "inputs": [
        {
          "internalType": "bytes32",
          "name": "role",
          "type": "bytes32"
        }
      ],
      "name": "getRoleAdmin",
      "outputs": [
        {
          "internalType": "bytes32",
          "name": "",
          "type": "bytes32"
        }
      ],
      "stateMutability": "view",
      "type": "function"
    },
    {
      "inputs": [
        {
          "internalType": "bytes32",
          "name": "role",
          "type": "bytes32"
        },
        {
          "internalType": "address",
          "name": "account",
          "type": "address"
        }
      ],
      "name": "grantRole",
      "outputs": [],
      "stateMutability": "nonpayable",
      "type": "function"
    },
    {
      "inputs": [
        {
          "internalType": "bytes32",
          "name": "role",
          "type": "bytes32"
        },
        {
          "internalType": "address",
          "name": "account",
          "type": "address"
        }
      ],
      "name": "hasRole",
      "outputs": [
        {
          "internalType": "bool",
          "name": "",
          "type": "bool"
        }
      ],
      "stateMutability": "view",
      "type": "function"
    },
    {
      "inputs": [
        {
          "internalType": "bytes32",
          "name": "role",
          "type": "bytes32"
        },
        {
          "internalType": "address",
          "name": "callerConfirmation",
          "type": "address"
        }
      ],
      "name": "renounceRole",
      "outputs": [],
      "stateMutability": "nonpayable",
      "type": "function"
    },
    {
      "inputs": [
        {
          "internalType": "bytes32",
          "name": "role",
          "type": "bytes32"
        },
        {
          "internalType": "address",
          "name": "account",
          "type": "address"
        }
      ],
      "name": "revokeRole",
      "outputs": [],
      "stateMutability": "nonpayable",
      "type": "function"
    },
    {
      "inputs": [
        {
          "internalType": "bytes4",
          "name": "interfaceId",
          "type": "bytes4"
        }
      ],
      "name": "supportsInterface",
      "outputs": [
        {
          "internalType": "bool",
          "name": "",
          "type": "bool"
        }
      ],
      "stateMutability": "view",
      "type": "function"
    }
  ],
  "transactionHash": "0xb3b26d1199bc609398865007b8bf680b19047b01ddfdef02305139483507a3ae",
  "args": [
    "0x686EE65b45Aa460CbAE7e53AAE91B481a73ed63f"
  ],
  "numDeployments": 2,
  "solcInputHash": "8fb485610e0c1be60cbff93ad2220ca2",
  "bytecode": "0x608060405234801561001057600080fd5b50604051610a0f380380610a0f83398101604081905261002f91610118565b61003a60008261006c565b506100657fca77cd8f9856ef5fcd36f6b15bf469fe216c2f9114f60dd031f0a2b97b67aaa98261006c565b5050610148565b6000828152602081815260408083206001600160a01b038516845290915281205460ff1661010e576000838152602081815260408083206001600160a01b03861684529091529020805460ff191660011790556100c63390565b6001600160a01b0316826001600160a01b0316847f2f8788117e7eff1d82e926ec794901d17c78024a50270940304540a733656f0d60405160405180910390a4506001610112565b5060005b92915050565b60006020828403121561012a57600080fd5b81516001600160a01b038116811461014157600080fd5b9392505050565b6108b8806101576000396000f3fe608060405234801561001057600080fd5b506004361061009e5760003560e01c80635695751111610066578063569575111461014b57806391d148541461015e578063a217fddf14610171578063d547741f14610179578063f10b893e1461018c57600080fd5b806301ffc9a7146100a3578063248a9ca3146100cb5780632f2ff15d146100fc5780632f81bb581461011157806336568abe14610138575b600080fd5b6100b66100b1366004610607565b61019f565b60405190151581526020015b60405180910390f35b6100ee6100d9366004610638565b60009081526020819052604090206001015490565b6040519081526020016100c2565b61010f61010a366004610651565b6101d6565b005b6100ee7fca77cd8f9856ef5fcd36f6b15bf469fe216c2f9114f60dd031f0a2b97b67aaa981565b61010f610146366004610651565b610201565b61010f6101593660046106d6565b610239565b6100b661016c366004610651565b6102fb565b6100ee600081565b61010f610187366004610651565b610324565b61010f61019a36600461077c565b610349565b60006001600160e01b03198216637965db0b60e01b14806101d057506301ffc9a760e01b6001600160e01b03198316145b92915050565b6000828152602081905260409020600101546101f1816104c0565b6101fb83836104cd565b50505050565b6001600160a01b038116331461022a5760405163334bd91960e11b815260040160405180910390fd5b610234828261055f565b505050565b7fca77cd8f9856ef5fcd36f6b15bf469fe216c2f9114f60dd031f0a2b97b67aaa9610263816104c0565b856102b55760405162461bcd60e51b815260206004820152601c60248201527f45766964656e636552656769737472793a20656d70747920686173680000000060448201526064015b60405180910390fd5b8385877f735e9faca95db69fc7eac30944c8cb621e120bc624f1bebbfabbfb2fd50d920f3387876040516102eb9392919061082c565b60405180910390a4505050505050565b6000918252602082815260408084206001600160a01b0393909316845291905290205460ff1690565b60008281526020819052604090206001015461033f816104c0565b6101fb838361055f565b7fca77cd8f9856ef5fcd36f6b15bf469fe216c2f9114f60dd031f0a2b97b67aaa9610373816104c0565b8684146103cc5760405162461bcd60e51b815260206004820152602160248201527f45766964656e636552656769737472793a206c656e677468206d69736d6174636044820152600d60fb1b60648201526084016102ac565b60005b878110156104b55760008989838181106103eb576103eb61086c565b905060200201350361043f5760405162461bcd60e51b815260206004820152601c60248201527f45766964656e636552656769737472793a20656d70747920686173680000000060448201526064016102ac565b8585828181106104515761045161086c565b90506020020135878a8a8481811061046b5761046b61086c565b905060200201357f735e9faca95db69fc7eac30944c8cb621e120bc624f1bebbfabbfb2fd50d920f3388886040516104a59392919061082c565b60405180910390a46001016103cf565b505050505050505050565b6104ca81336105ca565b50565b60006104d983836102fb565b610557576000838152602081815260408083206001600160a01b03861684529091529020805460ff1916600117905561050f3390565b6001600160a01b0316826001600160a01b0316847f2f8788117e7eff1d82e926ec794901d17c78024a50270940304540a733656f0d60405160405180910390a45060016101d0565b5060006101d0565b600061056b83836102fb565b15610557576000838152602081815260408083206001600160a01b0386168085529252808320805460ff1916905551339286917ff6391f5c32d9c69d2a47ea670b442974b53935d1edc7fd64eb21e047a839171b9190a45060016101d0565b6105d482826102fb565b6106035760405163e2517d3f60e01b81526001600160a01b0382166004820152602481018390526044016102ac565b5050565b60006020828403121561061957600080fd5b81356001600160e01b03198116811461063157600080fd5b9392505050565b60006020828403121561064a57600080fd5b5035919050565b6000806040838503121561066457600080fd5b8235915060208301356001600160a01b038116811461068257600080fd5b809150509250929050565b60008083601f84011261069f57600080fd5b50813567ffffffffffffffff8111156106b757600080fd5b6020830191508360208285010111156106cf57600080fd5b9250929050565b6000806000806000608086880312156106ee57600080fd5b853594506020860135935060408601359250606086013567ffffffffffffffff81111561071a57600080fd5b6107268882890161068d565b969995985093965092949392505050565b60008083601f84011261074957600080fd5b50813567ffffffffffffffff81111561076157600080fd5b6020830191508360208260051b85010111156106cf57600080fd5b60008060008060008060006080888a03121561079757600080fd5b873567ffffffffffffffff8111156107ae57600080fd5b6107ba8a828b01610737565b90985096505060208801359450604088013567ffffffffffffffff8111156107e157600080fd5b6107ed8a828b01610737565b909550935050606088013567ffffffffffffffff81111561080d57600080fd5b6108198a828b0161068d565b989b979a50959850939692959293505050565b6001600160a01b03841681526040602082018190528101829052818360608301376000818301606090810191909152601f909201601f1916010192915050565b634e487b7160e01b600052603260045260246000fdfea264697066735822122012c18f5898d2884cb15f4f17070026453405f8df16dcdcfdfd0c37167d8a110964736f6c634300081e0033",
  "devdoc": {
    "errors": {
      "AccessControlBadConfirmation()": [
        {
          "details": "The caller of a function is not the expected one. NOTE: Don't confuse with {AccessControlUnauthorizedAccount}."
        }
      ],
      "AccessControlUnauthorizedAccount(address,bytes32)": [
        {
          "details": "The `account` is missing a role."
        }
      ]
    },
    "events": {
      "RoleAdminChanged(bytes32,bytes32,bytes32)": {
        "details": "Emitted when `newAdminRole` is set as ``role``'s admin role, replacing `previousAdminRole` `DEFAULT_ADMIN_ROLE` is the starting admin for all roles, despite {RoleAdminChanged} not being emitted signaling this."
      },
      "RoleGranted(bytes32,address,address)": {
        "details": "Emitted when `account` is granted `role`. `sender` is the account that originated the contract call, an admin role bearer except when using {AccessControl-_setupRole}."
      },
      "RoleRevoked(bytes32,address,address)": {
        "details": "Emitted when `account` is revoked `role`. `sender` is the account that originated the contract call:   - if using `revokeRole`, it is the admin role bearer   - if using `renounceRole`, it is the role bearer (i.e. `account`)"
      }
    },
    "kind": "dev",
    "methods": {
      "getRoleAdmin(bytes32)": {
        "details": "Returns the admin role that controls `role`. See {grantRole} and {revokeRole}. To change a role's admin, use {_setRoleAdmin}."
      },
      "grantRole(bytes32,address)": {
        "details": "Grants `role` to `account`. If `account` had not been already granted `role`, emits a {RoleGranted} event. Requirements: - the caller must have ``role``'s admin role. May emit a {RoleGranted} event."
      },
      "hasRole(bytes32,address)": {
        "details": "Returns `true` if `account` has been granted `role`."
      },
      "renounceRole(bytes32,address)": {
        "details": "Revokes `role` from the calling account. Roles are often managed via {grantRole} and {revokeRole}: this function's purpose is to provide a mechanism for accounts to lose their privileges if they are compromised (such as when a trusted device is misplaced). If the calling account had been revoked `role`, emits a {RoleRevoked} event. Requirements: - the caller must be `callerConfirmation`. May emit a {RoleRevoked} event."
      },
      "revokeRole(bytes32,address)": {
        "details": "Revokes `role` from `account`. If `account` had been granted `role`, emits a {RoleRevoked} event. Requirements: - the caller must have ``role``'s admin role. May emit a {RoleRevoked} event."
      },
      "supportsInterface(bytes4)": {
        "details": "See {IERC165-supportsInterface}."
      }
    },
    "version": 1
  },
  "userdoc": {
    "kind": "user",
    "methods": {},
    "version": 1
  },
  "storageLayout": {
    "storage": [
      {
        "astId": 26,
        "contract": "contracts/EvidenceRegistry.sol:EvidenceRegistry",
        "label": "_roles",
        "offset": 0,
        "slot": "0",
        "type": "t_mapping(t_bytes32,t_struct(RoleData)21_storage)"
      }
    ],
    "types": {
      "t_address": {
        "encoding": "inplace",
        "label": "address",
        "numberOfBytes": "20"
      },
      "t_bool": {
        "encoding": "inplace",
        "label": "bool",
        "numberOfBytes": "1"
      },
      "t_bytes32": {
        "encoding": "inplace",
        "label": "bytes32",
        "numberOfBytes": "32"
      },
      "t_mapping(t_address,t_bool)": {
        "encoding": "mapping",
        "key": "t_address",
        "label": "mapping(address => bool)",
        "numberOfBytes": "32",
        "value": "t_bool"
      },
      "t_mapping(t_bytes32,t_struct(RoleData)21_storage)": {
        "encoding": "mapping",
        "key": "t_bytes32",
        "label": "mapping(bytes32 => struct AccessControl.RoleData)",
        "numberOfBytes": "32",
        "value": "t_struct(RoleData)21_storage"
      },
      "t_struct(RoleData)21_storage": {
        "encoding": "inplace",
        "label": "struct AccessControl.RoleData",
        "members": [
          {
            "astId": 18,
            "contract": "contracts/EvidenceRegistry.sol:EvidenceRegistry",
            "label": "hasRole",
            "offset": 0,
            "slot": "0",
            "type": "t_mapping(t_address,t_bool)"
          },
          {
            "astId": 20,
            "contract": "contracts/EvidenceRegistry.sol:EvidenceRegistry",
            "label": "adminRole",
            "offset": 0,
            "slot": "1",
            "type": "t_bytes32"
          }
        ],
        "numberOfBytes": "64"
      }
    }
  }
}