{
  "address": "0x4aFBB4F2737E739B833E99C7a6b3d3dEd7fbB39c",
  "abi": [
    {
      "inputs": [
        {
          "internalType": "address",
          "name": "admin",
          "type": "address"
        }
      ],
      "stateMutability": "nonpayable",
      "type": "constructor"
    },
    {
      "inputs": [],
      "name": "AccessControlBadConfirmation",
      "type": "error"
    },
    {
      "inputs": [
        {
          "internalType": "address",
          "name": "account",
          "type": "address"
        },
        {
          "internalType": "bytes32",
          "name": "neededRole",
          "type": "bytes32"
        }
      ],
      "name": "AccessControlUnauthorizedAccount",
      "type": "error"
    },
    {
      "inputs": [
        {
          "internalType": "address",
          "name": "sender",
          "type": "address"
        },
        {
          "internalType": "uint256",
          "name": "tokenId",
          "type": "uint256"
        },
        {
          "internalType": "address",
          "name": "owner",
          "type": "address"
        }
      ],
      "name": "ERC721IncorrectOwner",
      "type": "error"
    },
    {
      "inputs": [
        {
          "internalType": "address",
          "name": "operator",
          "type": "address"
        },
        {
          "internalType": "uint256",
          "name": "tokenId",
          "type": "uint256"
        }
      ],
      "name": "ERC721InsufficientApproval",
      "type": "error"
    },
    {
      "inputs": [
        {
          "internalType": "address",
          "name": "approver",
          "type": "address"
        }
      ],
      "name": "ERC721InvalidApprover",
      "type": "error"
    },
    {
      "inputs": [
        {
          "internalType": "address",
          "name": "operator",
          "type": "address"
        }
      ],
      "name": "ERC721InvalidOperator",
      "type": "error"
    },
    {
      "inputs": [
        {
          "internalType": "address",
          "name": "owner",
          "type": "address"
        }
      ],
      "name": "ERC721InvalidOwner",
      "type": "error"
    },
    {
      "inputs": [
        {
          "internalType": "address",
          "name": "receiver",
          "type": "address"
        }
      ],
      "name": "ERC721InvalidReceiver",
      "type": "error"
    },
    {
      "inputs": [
        {
          "internalType": "address",
          "name": "sender",
          "type": "address"
        }
      ],
      "name": "ERC721InvalidSender",
      "type": "error"
    },
    {
      "inputs": [
        {
          "internalType": "uint256",
          "name": "tokenId",
          "type": "uint256"
        }
      ],
      "name": "ERC721NonexistentToken",
      "type": "error"
    },
    {
      "inputs": [],
      "name": "NonTransferable",
      "type": "error"
    },
    {
      "anonymous": false,
      "inputs": [
        {
          "indexed": true,
          "internalType": "address",
          "name": "owner",
          "type": "address"
        },
        {
          "indexed": true,
          "internalType": "address",
          "name": "approved",
          "type": "address"
        },
        {
          "indexed": true,
          "internalType": "uint256",
          "name": "tokenId",
          "type": "uint256"
        }
      ],
      "name": "Approval",
      "type": "event"
    },
    {
      "anonymous": false,
      "inputs": [
        {
          "indexed": true,
          "internalType": "address",
          "name": "owner",
          "type": "address"
        },
        {
          "indexed": true,
          "internalType": "address",
          "name": "operator",
          "type": "address"
        },
        {
          "indexed": false,
          "internalType": "bool",
          "name": "approved",
          "type": "bool"
        }
      ],
      "name": "ApprovalForAll",
      "type": "event"
    },
    {
      "anonymous": false,
      "inputs": [
        {
          "indexed": true,
          "internalType": "uint256",
          "name": "tokenId",
          "type": "uint256"
        },
        {
          "indexed": true,
          "internalType": "uint256",
          "name": "partnershipId",
          "type": "uint256"
        },
        {
          "indexed": true,
          "internalType": "address",
          "name": "to",
          "type": "address"
        },
        {
          "indexed": false,
          "internalType": "bytes32",
          "name": "proposalHash",
          "type": "bytes32"
        }
      ],
      "name": "CertificateMinted",
      "type": "event"
    },
    {
      "anonymous": false,
      "inputs": [
        {
          "indexed": true,
          "internalType": "uint256",
          "name": "tokenId",
          "type": "uint256"
        },
        {
          "indexed": false,
          "internalType": "uint256",
          "name": "yieldQQ",
          "type": "uint256"
        },
        {
          "indexed": false,
          "internalType": "uint256",
          "name": "scaScoreTenths",
          "type": "uint256"
        },
        {
          "indexed": false,
          "internalType": "uint256",
          "name": "returnUsdcUnits",
          "type": "uint256"
        }
      ],
      "name": "MetadataUpdated",
      "type": "event"
    },
    {
      "anonymous": false,
      "inputs": [
        {
          "indexed": true,
          "internalType": "bytes32",
          "name": "role",
          "type": "bytes32"
        },
        {
          "indexed": true,
          "internalType": "bytes32",
          "name": "previousAdminRole",
          "type": "bytes32"
        },
        {
          "indexed": true,
          "internalType": "bytes32",
          "name": "newAdminRole",
          "type": "bytes32"
        }
      ],
      "name": "RoleAdminChanged",
      "type": "event"
    },
    {
      "anonymous": false,
      "inputs": [
        {
          "indexed": true,
          "internalType": "bytes32",
          "name": "role",
          "type": "bytes32"
        },
        {
          "indexed": true,
          "internalType": "address",
          "name": "account",
          "type": "address"
        },
        {
          "indexed": true,
          "internalType": "address",
          "name": "sender",
          "type": "address"
        }
      ],
      "name": "RoleGranted",
      "type": "event"
    },
    {
      "anonymous": false,
      "inputs": [
        {
          "indexed": true,
          "internalType": "bytes32",
          "name": "role",
          "type": "bytes32"
        },
        {
          "indexed": true,
          "internalType": "address",
          "name": "account",
          "type": "address"
        },
        {
          "indexed": true,
          "internalType": "address",
          "name": "sender",
          "type": "address"
        }
      ],
      "name": "RoleRevoked",
      "type": "event"
    },
    {
      "anonymous": false,
      "inputs": [
        {
          "indexed": true,
          "internalType": "address",
          "name": "from",
          "type": "address"
        },
        {
          "indexed": true,
          "internalType": "address",
          "name": "to",
          "type": "address"
        },
        {
          "indexed": true,
          "internalType": "uint256",
          "name": "tokenId",
          "type": "uint256"
        }
      ],
      "name": "Transfer",
      "type": "event"
    },
    {
      "inputs": [],
      "name": "DEFAULT_ADMIN_ROLE",
      "outputs": [
        {
          "internalType": "bytes32",
          "name": "",
          "type": "bytes32"
        }
      ],
      "stateMutability": "view",
      "type": "function"
    },
    {
      "inputs": [],
      "name": "METADATA_UPDATER_ROLE",
      "outputs": [
        {
          "internalType": "bytes32",
          "name": "",
          "type": "bytes32"
        }
      ],
      "stateMutability": "view",
      "type": "function"
    },
    {
      "inputs": [],
      "name": "MINTER_ROLE",
      "outputs": [
        {
          "internalType": "bytes32",
          "name": "",
          "type": "bytes32"
        }
      ],
      "stateMutability": "view",
      "type": "function"
    },
    {
      "inputs": [
        {
          "internalType": "address",
          "name": "to",
          "type": "address"
        },
        {
          "internalType": "uint256",
          "name": "tokenId",
          "type": "uint256"
        }
      ],
      "name": "approve",
      "outputs": [],
      "stateMutability": "nonpayable",
      "type": "function"
    },
    {
      "inputs": [
        {
          "internalType": "address",
          "name": "owner",
          "type": "address"
        }
      ],
      "name": "balanceOf",
      "outputs": [
        {
          "internalType": "uint256",
          "name": "",
          "type": "uint256"
        }
      ],
      "stateMutability": "view",
      "type": "function"
    },
    {
      "inputs": [
        {
          "internalType": "uint256",
          "name": "tokenId",
          "type": "uint256"
        }
      ],
      "name": "getApproved",
      "outputs": [
        {
          "internalType": "address",
          "name": "",
          "type": "address"
        }
      ],
      "stateMutability": "view",
      "type": "function"
    },
    {
      "inputs": [
        {
          "internalType": "bytes32",
          "name": "role",
          "type": "bytes32"
        }
      ],
      "name": "getRoleAdmin",
      "outputs": [
        {
          "internalType": "bytes32",
          "name": "",
          "type": "bytes32"
        }
      ],
      "stateMutability": "view",
      "type": "function"
    },
    {
      "inputs": [
        {
          "internalType": "bytes32",
          "name": "role",
          "type": "bytes32"
        },
        {
          "internalType": "address",
          "name": "account",
          "type": "address"
        }
      ],
      "name": "grantRole",
      "outputs": [],
      "stateMutability": "nonpayable",
      "type": "function"
    },
    {
      "inputs": [
        {
          "internalType": "bytes32",
          "name": "role",
          "type": "bytes32"
        },
        {
          "internalType": "address",
          "name": "account",
          "type": "address"
        }
      ],
      "name": "hasRole",
      "outputs": [
        {
          "internalType": "bool",
          "name": "",
          "type": "bool"
        }
      ],
      "stateMutability": "view",
      "type": "function"
    },
    {
      "inputs": [
        {
          "internalType": "address",
          "name": "owner",
          "type": "address"
        },
        {
          "internalType": "address",
          "name": "operator",
          "type": "address"
        }
      ],
      "name": "isApprovedForAll",
      "outputs": [
        {
          "internalType": "bool",
          "name": "",
          "type": "bool"
        }
      ],
      "stateMutability": "view",
      "type": "function"
    },
    {
      "inputs": [
        {
          "internalType": "uint256",
          "name": "tokenId",
          "type": "uint256"
        }
      ],
      "name": "lotMetadata",
      "outputs": [
        {
          "internalType": "string",
          "name": "status",
          "type": "string"
        },
        {
          "internalType": "uint256",
          "name": "yieldQQ",
          "type": "uint256"
        },
        {
          "internalType": "uint256",
          "name": "scaScoreTenths",
          "type": "uint256"
        },
        {
          "internalType": "uint256",
          "name": "returnUsdcUnits",
          "type": "uint256"
        },
        {
          "internalType": "uint256",
          "name": "settledAt",
          "type": "uint256"
        }
      ],
      "stateMutability": "view",
      "type": "function"
    },
    {
      "inputs": [
        {
          "internalType": "address",
          "name": "to",
          "type": "address"
        },
        {
          "internalType": "uint256",
          "name": "partnershipId",
          "type": "uint256"
        },
        {
          "internalType": "bytes32",
          "name": "proposalHash",
          "type": "bytes32"
        }
      ],
      "name": "mintCertificate",
      "outputs": [
        {
          "internalType": "uint256",
          "name": "tokenId",
          "type": "uint256"
        }
      ],
      "stateMutability": "nonpayable",
      "type": "function"
    },
    {
      "inputs": [],
      "name": "name",
      "outputs": [
        {
          "internalType": "string",
          "name": "",
          "type": "string"
        }
      ],
      "stateMutability": "view",
      "type": "function"
    },
    {
      "inputs": [
        {
          "internalType": "uint256",
          "name": "tokenId",
          "type": "uint256"
        }
      ],
      "name": "ownerOf",
      "outputs": [
        {
          "internalType": "address",
          "name": "",
          "type": "address"
        }
      ],
      "stateMutability": "view",
      "type": "function"
    },
    {
      "inputs": [
        {
          "internalType": "uint256",
          "name": "tokenId",
          "type": "uint256"
        }
      ],
      "name": "partnershipIdOf",
      "outputs": [
        {
          "internalType": "uint256",
          "name": "partnershipId",
          "type": "uint256"
        }
      ],
      "stateMutability": "view",
      "type": "function"
    },
    {
      "inputs": [
        {
          "internalType": "uint256",
          "name": "tokenId",
          "type": "uint256"
        }
      ],
      "name": "proposalHashOf",
      "outputs": [
        {
          "internalType": "bytes32",
          "name": "proposalHash",
          "type": "bytes32"
        }
      ],
      "stateMutability": "view",
      "type": "function"
    },
    {
      "inputs": [
        {
          "internalType": "bytes32",
          "name": "role",
          "type": "bytes32"
        },
        {
          "internalType": "address",
          "name": "callerConfirmation",
          "type": "address"
        }
      ],
      "name": "renounceRole",
      "outputs": [],
      "stateMutability": "nonpayable",
      "type": "function"
    },
    {
      "inputs": [
        {
          "internalType": "bytes32",
          "name": "role",
          "type": "bytes32"
        },
        {
          "internalType": "address",
          "name": "account",
          "type": "address"
        }
      ],
      "name": "revokeRole",
      "outputs": [],
      "stateMutability": "nonpayable",
      "type": "function"
    },
    {
      "inputs": [
        {
          "internalType": "address",
          "name": "from",
          "type": "address"
        },
        {
          "internalType": "address",
          "name": "to",
          "type": "address"
        },
        {
          "internalType": "uint256",
          "name": "tokenId",
          "type": "uint256"
        }
      ],
      "name": "safeTransferFrom",
      "outputs": [],
      "stateMutability": "nonpayable",
      "type": "function"
    },
    {
      "inputs": [
        {
          "internalType": "address",
          "name": "from",
          "type": "address"
        },
        {
          "internalType": "address",
          "name": "to",
          "type": "address"
        },
        {
          "internalType": "uint256",
          "name": "tokenId",
          "type": "uint256"
        },
        {
          "internalType": "bytes",
          "name": "data",
          "type": "bytes"
        }
      ],
      "name": "safeTransferFrom",
      "outputs": [],
      "stateMutability": "nonpayable",
      "type": "function"
    },
    {
      "inputs": [
        {
          "internalType": "address",
          "name": "operator",
          "type": "address"
        },
        {
          "internalType": "bool",
          "name": "approved",
          "type": "bool"
        }
      ],
      "name": "setApprovalForAll",
      "outputs": [],
      "stateMutability": "nonpayable",
      "type": "function"
    },
    {
      "inputs": [
        {
          "internalType": "bytes4",
          "name": "interfaceId",
          "type": "bytes4"
        }
      ],
      "name": "supportsInterface",
      "outputs": [
        {
          "internalType": "bool",
          "name": "",
          "type": "bool"
        }
      ],
      "stateMutability": "view",
      "type": "function"
    },
    {
      "inputs": [],
      "name": "symbol",
      "outputs": [
        {
          "internalType": "string",
          "name": "",
          "type": "string"
        }
      ],
      "stateMutability": "view",
      "type": "function"
    },
    {
      "inputs": [
        {
          "internalType": "uint256",
          "name": "tokenId",
          "type": "uint256"
        }
      ],
      "name": "tokenURI",
      "outputs": [
        {
          "internalType": "string",
          "name": "",
          "type": "string"
        }
      ],
      "stateMutability": "view",
      "type": "function"
    },
    {
      "inputs": [
        {
          "internalType": "address",
          "name": "from",
          "type": "address"
        },
        {
          "internalType": "address",
          "name": "to",
          "type": "address"
        },
        {
          "internalType": "uint256",
          "name": "tokenId",
          "type": "uint256"
        }
      ],
      "name": "transferFrom",
      "outputs": [],
      "stateMutability": "nonpayable",
      "type": "function"
    },
    {
      "inputs": [
        {
          "internalType": "uint256",
          "name": "tokenId",
          "type": "uint256"
        },
        {
          "internalType": "uint256",
          "name": "yieldQQ",
          "type": "uint256"
        },
        {
          "internalType": "uint256",
          "name": "scaScoreTenths",
          "type": "uint256"
        },
        {
          "internalType": "uint256",
          "name": "returnUsdcUnits",
          "type": "uint256"
        }
      ],
      "name": "updateMetadata",
      "outputs": [],
      "stateMutability": "nonpayable",
      "type": "function"
    }
  ],
  "transactionHash": "0x2d35f97a6c6554ca0be463b1e6e55d0c4bb13469e50737dad277414dd067b7a8",
  "args": [
    "0x686EE65b45Aa460CbAE7e53AAE91B481a73ed63f"
  ],
  "numDeployments": 1,
  "solcInputHash": "48852bfafb7c717ff8a63148503273e6",
  "bytecode": "0x6080604052600160075534801561001557600080fd5b5060405161259c38038061259c833981016040819052610034916101c1565b6040518060400160405280601981526020017f486172767665727365204c6f74204365727469666963617465000000000000008152506040518060400160405280600581526020016412159313d560da1b81525081600090816100979190610290565b5060016100a48282610290565b506100b491506000905082610111565b506100df7f9f2df0fed2c77648de5860a4cc508cd0818c85b8b8a1ab4ceeef8d981c8956a682610111565b5061010a7f7f5260842512b02356ff92de24be96e7e1aac2e234d9371b076ac2b4cddda61e82610111565b505061034e565b60008281526006602090815260408083206001600160a01b038516845290915281205460ff166101b75760008381526006602090815260408083206001600160a01b03861684529091529020805460ff1916600117905561016f3390565b6001600160a01b0316826001600160a01b0316847f2f8788117e7eff1d82e926ec794901d17c78024a50270940304540a733656f0d60405160405180910390a45060016101bb565b5060005b92915050565b6000602082840312156101d357600080fd5b81516001600160a01b03811681146101ea57600080fd5b9392505050565b634e487b7160e01b600052604160045260246000fd5b600181811c9082168061021b57607f821691505b60208210810361023b57634e487b7160e01b600052602260045260246000fd5b50919050565b601f82111561028b57806000526020600020601f840160051c810160208510156102685750805b601f840160051c820191505b818110156102885760008155600101610274565b50505b505050565b81516001600160401b038111156102a9576102a96101f1565b6102bd816102b78454610207565b84610241565b6020601f8211600181146102f157600083156102d95750848201515b600019600385901b1c1916600184901b178455610288565b600084815260208120601f198516915b828110156103215787850151825560209485019460019092019101610301565b508482101561033f5786840151600019600387901b60f8161c191681555b50505050600190811b01905550565b61223f8061035d6000396000f3fe608060405234801561001057600080fd5b506004361061018e5760003560e01c80637244e823116100de578063a22cb46511610097578063d539139311610071578063d5391393146103a0578063d547741f146103c7578063dcef759a146103da578063e985e9c5146103fa57600080fd5b8063a22cb46514610367578063b88d4fde1461037a578063c87b56dd1461038d57600080fd5b80637244e823146102e657806375066b1d146102f9578063890257501461031d57806391d148541461034457806395d89b4114610357578063a217fddf1461035f57600080fd5b80632f2ff15d1161014b57806342a4a8c91161012557806342a4a8c91461028d5780634628a956146102a05780636352211e146102c057806370a08231146102d357600080fd5b80632f2ff15d1461025457806336568abe1461026757806342842e0e1461027a57600080fd5b806301ffc9a71461019357806306fdde03146101bb578063081812fc146101d0578063095ea7b3146101fb57806323b872dd14610210578063248a9ca314610223575b600080fd5b6101a66101a136600461185e565b61040d565b60405190151581526020015b60405180910390f35b6101c361041e565b6040516101b291906118d2565b6101e36101de3660046118e5565b6104b0565b6040516001600160a01b0390911681526020016101b2565b61020e61020936600461191a565b6104d9565b005b61020e61021e366004611944565b6104e8565b6102466102313660046118e5565b60009081526006602052604090206001015490565b6040519081526020016101b2565b61020e610262366004611981565b610578565b61020e610275366004611981565b61059d565b61020e610288366004611944565b6105d5565b61024661029b3660046119ad565b6105f0565b6102466102ae3660046118e5565b60086020526000908152604090205481565b6101e36102ce3660046118e5565b6106b0565b6102466102e13660046119e0565b6106bb565b61020e6102f43660046119fb565b610703565b61030c6103073660046118e5565b610809565b6040516101b2959493929190611a2d565b6102467f7f5260842512b02356ff92de24be96e7e1aac2e234d9371b076ac2b4cddda61e81565b6101a6610352366004611981565b6108bf565b6101c36108ea565b610246600081565b61020e610375366004611a64565b6108f9565b61020e610388366004611ab6565b610904565b6101c361039b3660046118e5565b61091b565b6102467f9f2df0fed2c77648de5860a4cc508cd0818c85b8b8a1ab4ceeef8d981c8956a681565b61020e6103d5366004611981565b610c69565b6102466103e83660046118e5565b60096020526000908152604090205481565b6101a6610408366004611b9a565b610c8e565b600061041882610cbc565b92915050565b60606000805461042d90611bc4565b80601f016020809104026020016040519081016040528092919081815260200182805461045990611bc4565b80156104a65780601f1061047b576101008083540402835291602001916104a6565b820191906000526020600020905b81548152906001019060200180831161048957829003601f168201915b5050505050905090565b60006104bb82610ce1565b506000828152600460205260409020546001600160a01b0316610418565b6104e4828233610d1a565b5050565b6001600160a01b03821661051757604051633250574960e11b8152600060048201526024015b60405180910390fd5b6000610524838333610d27565b9050836001600160a01b0316816001600160a01b031614610572576040516364283d7b60e01b81526001600160a01b038086166004830152602482018490528216604482015260640161050e565b50505050565b60008281526006602052604090206001015461059381610d87565b6105728383610d94565b6001600160a01b03811633146105c65760405163334bd91960e11b815260040160405180910390fd5b6105d08282610e28565b505050565b6105d083838360405180602001604052806000815250610904565b60007f9f2df0fed2c77648de5860a4cc508cd0818c85b8b8a1ab4ceeef8d981c8956a661061c81610d87565b6007805490600061062c83611c14565b90915550600081815260086020908152604080832087905560099091529020859055915061065a8583610e95565b61066382610eaf565b846001600160a01b031684837fa0ac62c30378202a152a0557faaa44190f825c97a95f8625c2a6501c5731f349866040516106a091815260200190565b60405180910390a4509392505050565b600061041882610ce1565b60006001600160a01b0382166106e7576040516322718ad960e21b81526000600482015260240161050e565b506001600160a01b031660009081526003602052604090205490565b7f7f5260842512b02356ff92de24be96e7e1aac2e234d9371b076ac2b4cddda61e61072d81610d87565b61073685610ce1565b506040805160e081018252600760a082019081526614d95d1d1b195960ca1b60c083015281526020808201879052818301869052606082018590524260808301526000888152600a90915291909120815181906107939082611c74565b50602082810151600183015560408084015160028401556060808501516003850155608090940151600490930192909255815187815290810186905290810184905286917fb6cb1b464ca3aafd50611d08119a275e27a3324edf21b153a200f62140ee5c2e910160405180910390a25050505050565b600a6020526000908152604090208054819061082490611bc4565b80601f016020809104026020016040519081016040528092919081815260200182805461085090611bc4565b801561089d5780601f106108725761010080835404028352916020019161089d565b820191906000526020600020905b81548152906001019060200180831161088057829003601f168201915b5050505050908060010154908060020154908060030154908060040154905085565b60009182526006602090815260408084206001600160a01b0393909316845291905290205460ff1690565b60606001805461042d90611bc4565b6104e4338383610f38565b61090f8484846104e8565b61057284848484610fd7565b606061092682610ce1565b506000828152600a6020526040808220815160a0810190925280548290829061094e90611bc4565b80601f016020809104026020016040519081016040528092919081815260200182805461097a90611bc4565b80156109c75780601f1061099c576101008083540402835291602001916109c7565b820191906000526020600020905b8154815290600101906020018083116109aa57829003601f168201915b5050505050815260200160018201548152602001600282015481526020016003820154815260200160048201548152505090506000816000015151600014610a10578151610a30565b6040518060400160405280600681526020016541637469766560d01b8152505b90506000610a3d85611100565b604051602001610a4d9190611d4f565b60408051601f19818403018152908290526d2261747472696275746573223a5b60901b60208301527f7b2274726169745f74797065223a224c6f74222c2276616c7565223a2248562d602e8301526c12138b5690518b530c0c889f4b609a1b604e8301527f7b2274726169745f74797065223a2256617269657479222c2276616c7565223a605b8301526c0894185c985a5b995b58489f4b609a1b607b8301527f7b2274726169745f74797065223a22416c746974756465222c2276616c75652260888301526d0e888c4ccc0c081b5cdb9b489f4b60921b60a88301527f7b2274726169745f74797065223a2250726f66696c65222c2276616c7565223a60b68301526c0890cb541c995b5a5d5b489f4b609a1b60d68301527f7b2274726169745f74797065223a225469636b6574222c2276616c7565223a2260e38301526d090ccb0d0c8d481554d110c89f4b60921b6101038301529150600090610111016040516020818303038152906040529050600083610bce8660200151611193565b610bdb8760400151611193565b610be88860600151611208565b604051602001610bfb9493929190611ede565b60405160208183030381529060405290506000838383604051602001610c2393929190612043565b6040516020818303038152906040529050610c3d81611245565b604051602001610c4d9190612086565b6040516020818303038152906040529650505050505050919050565b600082815260066020526040902060010154610c8481610d87565b6105728383610e28565b6001600160a01b03918216600090815260056020908152604080832093909416825291909152205460ff1690565b60006001600160e01b03198216637965db0b60e01b14806104185750610418826113a5565b6000818152600260205260408120546001600160a01b03168061041857604051637e27328960e01b81526004810184905260240161050e565b6105d083838360016113f5565b6000828152600260205260409020546001600160a01b03168015801590610d5657506001600160a01b03841615155b15610d7457604051639cbe235760e01b815260040160405180910390fd5b610d7f8484846114fb565b949350505050565b610d9181336115f4565b50565b6000610da083836108bf565b610e205760008381526006602090815260408083206001600160a01b03861684529091529020805460ff19166001179055610dd83390565b6001600160a01b0316826001600160a01b0316847f2f8788117e7eff1d82e926ec794901d17c78024a50270940304540a733656f0d60405160405180910390a4506001610418565b506000610418565b6000610e3483836108bf565b15610e205760008381526006602090815260408083206001600160a01b0386168085529252808320805460ff1916905551339286917ff6391f5c32d9c69d2a47ea670b442974b53935d1edc7fd64eb21e047a839171b9190a4506001610418565b6104e482826040518060200160405280600081525061162d565b6040805160e081018252600660a082019081526541637469766560d01b60c08301528152600060208083018290528284018290526060830182905260808301829052848252600a90529190912081518190610f0a9082611c74565b5060208201516001820155604082015160028201556060820151600382015560809091015160049091015550565b6001600160a01b038216610f6a57604051630b61174360e31b81526001600160a01b038316600482015260240161050e565b6001600160a01b03838116600081815260056020908152604080832094871680845294825291829020805460ff191686151590811790915591519182527f17307eab39ab6107e8899845ad3d59bd9653f200f220920489ca2b5937696c31910160405180910390a3505050565b6001600160a01b0383163b1561057257604051630a85bd0160e11b81526001600160a01b0384169063150b7a02906110199033908890879087906004016120cb565b6020604051808303816000875af1925050508015611054575060408051601f3d908101601f1916820190925261105191810190612108565b60015b6110bd573d808015611082576040519150601f19603f3d011682016040523d82523d6000602084013e611087565b606091505b5080516000036110b557604051633250574960e11b81526001600160a01b038516600482015260240161050e565b805181602001fd5b6001600160e01b03198116630a85bd0160e11b146110f957604051633250574960e11b81526001600160a01b038516600482015260240161050e565b5050505050565b6060600061110d83611644565b600101905060008167ffffffffffffffff81111561112d5761112d611aa0565b6040519080825280601f01601f191660200182016040528015611157576020820181803683370190505b5090508181016020015b600019016f181899199a1a9b1b9c1cb0b131b232b360811b600a86061a8153600a850494508461116157509392505050565b6060816000036111c057505060408051808201909152600781526650656e64696e6760c81b602082015290565b6111d36111ce600a8461213b565b611100565b6111e16111ce600a8561214f565b6040516020016111f2929190612163565b6040516020818303038152906040529050919050565b60608160000361123557505060408051808201909152600781526650656e64696e6760c81b602082015290565b6104186111ce620f42408461213b565b6060815160000361126457505060408051602081019091526000815290565b60006040518060600160405280604081526020016121ca6040913990506000600384516002611293919061219f565b61129d919061213b565b6112a89060046121b2565b67ffffffffffffffff8111156112c0576112c0611aa0565b6040519080825280601f01601f1916602001820160405280156112ea576020820181803683370190505b50905060018201602082018586518701602081018051600082525b82841015611360576003840193508351603f8160121c168701518653600186019550603f81600c1c168701518653600186019550603f8160061c168701518653600186019550603f8116870151865350600185019450611305565b905250508551600390066001811461137f57600281146113925761139a565b603d6001830353603d600283035361139a565b603d60018303535b509195945050505050565b60006001600160e01b031982166380ac58cd60e01b14806113d657506001600160e01b03198216635b5e139f60e01b145b8061041857506301ffc9a760e01b6001600160e01b0319831614610418565b808061140957506001600160a01b03821615155b156114cb57600061141984610ce1565b90506001600160a01b038316158015906114455750826001600160a01b0316816001600160a01b031614155b801561145857506114568184610c8e565b155b156114815760405163a9fbf51f60e01b81526001600160a01b038416600482015260240161050e565b81156114c95783856001600160a01b0316826001600160a01b03167f8c5be1e5ebec7d5bd14f71427d1e84f3dd0314c0f7b2291e5b200ac8c7c3b92560405160405180910390a45b505b5050600090815260046020526040902080546001600160a01b0319166001600160a01b0392909216919091179055565b6000828152600260205260408120546001600160a01b03908116908316156115285761152881848661171c565b6001600160a01b03811615611566576115456000856000806113f5565b6001600160a01b038116600090815260036020526040902080546000190190555b6001600160a01b03851615611595576001600160a01b0385166000908152600360205260409020805460010190555b60008481526002602052604080822080546001600160a01b0319166001600160a01b0389811691821790925591518793918516917fddf252ad1be2c89b69c2b068fc378daa952ba7f163c4a11628f55a4df523b3ef91a4949350505050565b6115fe82826108bf565b6104e45760405163e2517d3f60e01b81526001600160a01b03821660048201526024810183905260440161050e565b6116378383611780565b6105d06000848484610fd7565b60008072184f03e93ff9f4daa797ed6e38ed64bf6a1f0160401b83106116835772184f03e93ff9f4daa797ed6e38ed64bf6a1f0160401b830492506040015b6d04ee2d6d415b85acef810000000083106116af576d04ee2d6d415b85acef8100000000830492506020015b662386f26fc1000083106116cd57662386f26fc10000830492506010015b6305f5e10083106116e5576305f5e100830492506008015b61271083106116f957612710830492506004015b6064831061170b576064830492506002015b600a83106104185760010192915050565b6117278383836117e5565b6105d0576001600160a01b03831661175557604051637e27328960e01b81526004810182905260240161050e565b60405163177e802f60e01b81526001600160a01b03831660048201526024810182905260440161050e565b6001600160a01b0382166117aa57604051633250574960e11b81526000600482015260240161050e565b60006117b883836000610d27565b90506001600160a01b038116156105d0576040516339e3563760e11b81526000600482015260240161050e565b60006001600160a01b03831615801590610d7f5750826001600160a01b0316846001600160a01b0316148061181f575061181f8484610c8e565b80610d7f5750506000908152600460205260409020546001600160a01b03908116911614919050565b6001600160e01b031981168114610d9157600080fd5b60006020828403121561187057600080fd5b813561187b81611848565b9392505050565b60005b8381101561189d578181015183820152602001611885565b50506000910152565b600081518084526118be816020860160208601611882565b601f01601f19169290920160200192915050565b60208152600061187b60208301846118a6565b6000602082840312156118f757600080fd5b5035919050565b80356001600160a01b038116811461191557600080fd5b919050565b6000806040838503121561192d57600080fd5b611936836118fe565b946020939093013593505050565b60008060006060848603121561195957600080fd5b611962846118fe565b9250611970602085016118fe565b929592945050506040919091013590565b6000806040838503121561199457600080fd5b823591506119a4602084016118fe565b90509250929050565b6000806000606084860312156119c257600080fd5b6119cb846118fe565b95602085013595506040909401359392505050565b6000602082840312156119f257600080fd5b61187b826118fe565b60008060008060808587031215611a1157600080fd5b5050823594602084013594506040840135936060013592509050565b60a081526000611a4060a08301886118a6565b90508560208301528460408301528360608301528260808301529695505050505050565b60008060408385031215611a7757600080fd5b611a80836118fe565b915060208301358015158114611a9557600080fd5b809150509250929050565b634e487b7160e01b600052604160045260246000fd5b60008060008060808587031215611acc57600080fd5b611ad5856118fe565b9350611ae3602086016118fe565b925060408501359150606085013567ffffffffffffffff811115611b0657600080fd5b8501601f81018713611b1757600080fd5b803567ffffffffffffffff811115611b3157611b31611aa0565b604051601f8201601f19908116603f0116810167ffffffffffffffff81118282101715611b6057611b60611aa0565b604052818152828201602001891015611b7857600080fd5b8160208401602083013760006020838301015280935050505092959194509250565b60008060408385031215611bad57600080fd5b611bb6836118fe565b91506119a4602084016118fe565b600181811c90821680611bd857607f821691505b602082108103611bf857634e487b7160e01b600052602260045260246000fd5b50919050565b634e487b7160e01b600052601160045260246000fd5b600060018201611c2657611c26611bfe565b5060010190565b601f8211156105d057806000526020600020601f840160051c81016020851015611c545750805b601f840160051c820191505b818110156110f95760008155600101611c60565b815167ffffffffffffffff811115611c8e57611c8e611aa0565b611ca281611c9c8454611bc4565b84611c2d565b6020601f821160018114611cd65760008315611cbe5750848201515b600019600385901b1c1916600184901b1784556110f9565b600084815260208120601f198516915b82811015611d065787850151825560209485019460019092019101611ce6565b5084821015611d245786840151600019600387901b60f8161c191681555b50505050600190811b01905550565b60008151611d45818560208601611882565b9290920192915050565b7f7b226e616d65223a22486172767665727365204c6f74205a41462d4c303220e281527f809420506879676974616c20506172746e657273686970202300000000000000602082015260008251611dad816039850160208701611882565b7f222c226465736372697074696f6e223a225a616669726f2050617261696e656d60399390910192830152507f612e20312e30206d616e7a616e612e20436f6d6179616775612c20486f6e647560598201527f7261732e20312c333030206d736e6d2e2050726f66696c6520432d5072656d6960798201527f756d2e2056616c69646174656420627920436f4520486f6e647572617320323060998201526d0c4cc810da185b5c1a5bdb8b888b60921b60b98201527f22696d616765223a2268747470733a2f2f696d616765732e756e73706c61736860c78201527f2e636f6d2f70686f746f2d313434373933333630313430332d3063363638386460e78201527f65353636653f773d34303026683d343030266669743d63726f70222c0000000061010782015261012301919050565b7f7b2274726169745f74797065223a22537461747573222c2276616c7565223a22815260008551611f16816020850160208a01611882565b808301905062089f4b60ea1b60208201527f7b2274726169745f74797065223a225969656c642028717129222c2276616c7560238201526332911d1160e11b60438201528551611f6d816047840160208a01611882565b60208183010191505062089f4b60ea1b60278201527f7b2274726169745f74797065223a225343412053636f7265222c2276616c7565602a82015262111d1160e91b604a82015261203861202a61201c612016611fdf611fd0604d87018b611d33565b62089f4b60ea1b815260030190565b7f7b2274726169745f74797065223a2252657475726e2055534443222c2276616c8152643ab2911d1160d91b602082015260250190565b87611d33565b61227d60f01b815260020190565b615d7d60f01b815260020190565b979650505050505050565b60008451612055818460208901611882565b845190830190612069818360208901611882565b845191019061207c818360208801611882565b0195945050505050565b7f646174613a6170706c69636174696f6e2f6a736f6e3b6261736536342c0000008152600082516120be81601d850160208701611882565b91909101601d0192915050565b6001600160a01b03858116825284166020820152604081018390526080606082018190526000906120fe908301846118a6565b9695505050505050565b60006020828403121561211a57600080fd5b815161187b81611848565b634e487b7160e01b600052601260045260246000fd5b60008261214a5761214a612125565b500490565b60008261215e5761215e612125565b500690565b60008351612175818460208801611882565b601760f91b9083019081528351612193816001840160208801611882565b01600101949350505050565b8082018082111561041857610418611bfe565b808202811582820484141761041857610418611bfe56fe4142434445464748494a4b4c4d4e4f505152535455565758595a6162636465666768696a6b6c6d6e6f707172737475767778797a303132333435363738392b2fa264697066735822122065abda3766fd4df3b93241a57945c0f44b8309df2d0f31674f34a2670323558d64736f6c634300081e0033",
  "devdoc": {
    "errors": {
      "AccessControlBadConfirmation()": [
        {
          "details": "The caller of a function is not the expected one. NOTE: Don't confuse with {AccessControlUnauthorizedAccount}."
        }
      ],
      "AccessControlUnauthorizedAccount(address,bytes32)": [
        {
          "details": "The `account` is missing a role."
        }
      ],
      "ERC721IncorrectOwner(address,uint256,address)": [
        {
          "details": "Indicates an error related to the ownership over a particular token. Used in transfers.",
          "params": {
            "owner": "Address of the current owner of a token.",
            "sender": "Address whose tokens are being transferred.",
            "tokenId": "Identifier number of a token."
          }
        }
      ],
      "ERC721InsufficientApproval(address,uint256)": [
        {
          "details": "Indicates a failure with the `operator`’s approval. Used in transfers.",
          "params": {
            "operator": "Address that may be allowed to operate on tokens without being their owner.",
            "tokenId": "Identifier number of a token."
          }
        }
      ],
      "ERC721InvalidApprover(address)": [
        {
          "details": "Indicates a failure with the `approver` of a token to be approved. Used in approvals.",
          "params": {
            "approver": "Address initiating an approval operation."
          }
        }
      ],
      "ERC721InvalidOperator(address)": [
        {
          "details": "Indicates a failure with the `operator` to be approved. Used in approvals.",
          "params": {
            "operator": "Address that may be allowed to operate on tokens without being their owner."
          }
        }
      ],
      "ERC721InvalidOwner(address)": [
        {
          "details": "Indicates that an address can't be an owner. For example, `address(0)` is a forbidden owner in EIP-20. Used in balance queries.",
          "params": {
            "owner": "Address of the current owner of a token."
          }
        }
      ],
      "ERC721InvalidReceiver(address)": [
        {
          "details": "Indicates a failure with the token `receiver`. Used in transfers.",
          "params": {
            "receiver": "Address to which tokens are being transferred."
          }
        }
      ],
      "ERC721InvalidSender(address)": [
        {
          "details": "Indicates a failure with the token `sender`. Used in transfers.",
          "params": {
            "sender": "Address whose tokens are being transferred."
          }
        }
      ],
      "ERC721NonexistentToken(uint256)": [
        {
          "details": "Indicates a `tokenId` whose `owner` is the zero address.",
          "params": {
            "tokenId": "Identifier number of a token."
          }
        }
      ]
    },
    "events": {
      "Approval(address,address,uint256)": {
        "details": "Emitted when `owner` enables `approved` to manage the `tokenId` token."
      },
      "ApprovalForAll(address,address,bool)": {
        "details": "Emitted when `owner` enables or disables (`approved`) `operator` to manage all of its assets."
      },
      "RoleAdminChanged(bytes32,bytes32,bytes32)": {
        "details": "Emitted when `newAdminRole` is set as ``role``'s admin role, replacing `previousAdminRole` `DEFAULT_ADMIN_ROLE` is the starting admin for all roles, despite {RoleAdminChanged} not being emitted signaling this."
      },
      "RoleGranted(bytes32,address,address)": {
        "details": "Emitted when `account` is granted `role`. `sender` is the account that originated the contract call, an admin role bearer except when using {AccessControl-_setupRole}."
      },
      "RoleRevoked(bytes32,address,address)": {
        "details": "Emitted when `account` is revoked `role`. `sender` is the account that originated the contract call:   - if using `revokeRole`, it is the admin role bearer   - if using `renounceRole`, it is the role bearer (i.e. `account`)"
      },
      "Transfer(address,address,uint256)": {
        "details": "Emitted when `tokenId` token is transferred from `from` to `to`."
      }
    },
    "kind": "dev",
    "methods": {
      "approve(address,uint256)": {
        "details": "See {IERC721-approve}."
      },
      "balanceOf(address)": {
        "details": "See {IERC721-balanceOf}."
      },
      "getApproved(uint256)": {
        "details": "See {IERC721-getApproved}."
      },
      "getRoleAdmin(bytes32)": {
        "details": "Returns the admin role that controls `role`. See {grantRole} and {revokeRole}. To change a role's admin, use {_setRoleAdmin}."
      },
      "grantRole(bytes32,address)": {
        "details": "Grants `role` to `account`. If `account` had not been already granted `role`, emits a {RoleGranted} event. Requirements: - the caller must have ``role``'s admin role. May emit a {RoleGranted} event."
      },
      "hasRole(bytes32,address)": {
        "details": "Returns `true` if `account` has been granted `role`."
      },
      "isApprovedForAll(address,address)": {
        "details": "See {IERC721-isApprovedForAll}."
      },
      "name()": {
        "details": "See {IERC721Metadata-name}."
      },
      "ownerOf(uint256)": {
        "details": "See {IERC721-ownerOf}."
      },
      "renounceRole(bytes32,address)": {
        "details": "Revokes `role` from the calling account. Roles are often managed via {grantRole} and {revokeRole}: this function's purpose is to provide a mechanism for accounts to lose their privileges if they are compromised (such as when a trusted device is misplaced). If the calling account had been revoked `role`, emits a {RoleRevoked} event. Requirements: - the caller must be `callerConfirmation`. May emit a {RoleRevoked} event."
      },
      "revokeRole(bytes32,address)": {
        "details": "Revokes `role` from `account`. If `account` had been granted `role`, emits a {RoleRevoked} event. Requirements: - the caller must have ``role``'s admin role. May emit a {RoleRevoked} event."
      },
      "safeTransferFrom(address,address,uint256)": {
        "details": "See {IERC721-safeTransferFrom}."
      },
      "safeTransferFrom(address,address,uint256,bytes)": {
        "details": "See {IERC721-safeTransferFrom}."
      },
      "setApprovalForAll(address,bool)": {
        "details": "See {IERC721-setApprovalForAll}."
      },
      "symbol()": {
        "details": "See {IERC721Metadata-symbol}."
      },
      "tokenURI(uint256)": {
        "details": "See {IERC721Metadata-tokenURI}."
      },
      "transferFrom(address,address,uint256)": {
        "details": "See {IERC721-transferFrom}."
      }
    },
    "version": 1
  },
  "userdoc": {
    "kind": "user",
    "methods": {},
    "version": 1
  },
  "storageLayout": {
    "storage": [
      {
        "astId": 1493,
        "contract": "contracts/LotCertificate.sol:LotCertificate",
        "label": "_name",
        "offset": 0,
        "slot": "0",
        "type": "t_string_storage"
      },
      {
        "astId": 1495,
        "contract": "contracts/LotCertificate.sol:LotCertificate",
        "label": "_symbol",
        "offset": 0,
        "slot": "1",
        "type": "t_string_storage"
      },
      {
        "astId": 1499,
        "contract": "contracts/LotCertificate.sol:LotCertificate",
        "label": "_owners",
        "offset": 0,
        "slot": "2",
        "type": "t_mapping(t_uint256,t_address)"
      },
      {
        "astId": 1503,
        "contract": "contracts/LotCertificate.sol:LotCertificate",
        "label": "_balances",
        "offset": 0,
        "slot": "3",
        "type": "t_mapping(t_address,t_uint256)"
      },
      {
        "astId": 1507,
        "contract": "contracts/LotCertificate.sol:LotCertificate",
        "label": "_tokenApprovals",
        "offset": 0,
        "slot": "4",
        "type": "t_mapping(t_uint256,t_address)"
      },
      {
        "astId": 1513,
        "contract": "contracts/LotCertificate.sol:LotCertificate",
        "label": "_operatorApprovals",
        "offset": 0,
        "slot": "5",
        "type": "t_mapping(t_address,t_mapping(t_address,t_bool))"
      },
      {
        "astId": 26,
        "contract": "contracts/LotCertificate.sol:LotCertificate",
        "label": "_roles",
        "offset": 0,
        "slot": "6",
        "type": "t_mapping(t_bytes32,t_struct(RoleData)21_storage)"
      },
      {
        "astId": 4584,
        "contract": "contracts/LotCertificate.sol:LotCertificate",
        "label": "_nextTokenId",
        "offset": 0,
        "slot": "7",
        "type": "t_uint256"
      },
      {
        "astId": 4599,
        "contract": "contracts/LotCertificate.sol:LotCertificate",
        "label": "proposalHashOf",
        "offset": 0,
        "slot": "8",
        "type": "t_mapping(t_uint256,t_bytes32)"
      },
      {
        "astId": 4603,
        "contract": "contracts/LotCertificate.sol:LotCertificate",
        "label": "partnershipIdOf",
        "offset": 0,
        "slot": "9",
        "type": "t_mapping(t_uint256,t_uint256)"
      },
      {
        "astId": 4608,
        "contract": "contracts/LotCertificate.sol:LotCertificate",
        "label": "lotMetadata",
        "offset": 0,
        "slot": "10",
        "type": "t_mapping(t_uint256,t_struct(LotMetadata)4595_storage)"
      }
    ],
    "types": {
      "t_address": {
        "encoding": "inplace",
        "label": "address",
        "numberOfBytes": "20"
      },
      "t_bool": {
        "encoding": "inplace",
        "label": "bool",
        "numberOfBytes": "1"
      },
      "t_bytes32": {
        "encoding": "inplace",
        "label": "bytes32",
        "numberOfBytes": "32"
      },
      "t_mapping(t_address,t_bool)": {
        "encoding": "mapping",
        "key": "t_address",
        "label": "mapping(address => bool)",
        "numberOfBytes": "32",
        "value": "t_bool"
      },
      "t_mapping(t_address,t_mapping(t_address,t_bool))": {
        "encoding": "mapping",
        "key": "t_address",
        "label": "mapping(address => mapping(address => bool))",
        "numberOfBytes": "32",
        "value": "t_mapping(t_address,t_bool)"
      },
      "t_mapping(t_address,t_uint256)": {
        "encoding": "mapping",
        "key": "t_address",
        "label": "mapping(address => uint256)",
        "numberOfBytes": "32",
        "value": "t_uint256"
      },
      "t_mapping(t_bytes32,t_struct(RoleData)21_storage)": {
        "encoding": "mapping",
        "key": "t_bytes32",
        "label": "mapping(bytes32 => struct AccessControl.RoleData)",
        "numberOfBytes": "32",
        "value": "t_struct(RoleData)21_storage"
      },
      "t_mapping(t_uint256,t_address)": {
        "encoding": "mapping",
        "key": "t_uint256",
        "label": "mapping(uint256 => address)",
        "numberOfBytes": "32",
        "value": "t_address"
      },
      "t_mapping(t_uint256,t_bytes32)": {
        "encoding": "mapping",
        "key": "t_uint256",
        "label": "mapping(uint256 => bytes32)",
        "numberOfBytes": "32",
        "value": "t_bytes32"
      },
      "t_mapping(t_uint256,t_struct(LotMetadata)4595_storage)": {
        "encoding": "mapping",
        "key": "t_uint256",
        "label": "mapping(uint256 => struct LotCertificate.LotMetadata)",
        "numberOfBytes": "32",
        "value": "t_struct(LotMetadata)4595_storage"
      },
      "t_mapping(t_uint256,t_uint256)": {
        "encoding": "mapping",
        "key": "t_uint256",
        "label": "mapping(uint256 => uint256)",
        "numberOfBytes": "32",
        "value": "t_uint256"
      },
      "t_string_storage": {
        "encoding": "bytes",
        "label": "string",
        "numberOfBytes": "32"
      },
      "t_struct(LotMetadata)4595_storage": {
        "encoding": "inplace",
        "label": "struct LotCertificate.LotMetadata",
        "members": [
          {
            "astId": 4586,
            "contract": "contracts/LotCertificate.sol:LotCertificate",
            "label": "status",
            "offset": 0,
            "slot": "0",
            "type": "t_string_storage"
          },
          {
            "astId": 4588,
            "contract": "contracts/LotCertificate.sol:LotCertificate",
            "label": "yieldQQ",
            "offset": 0,
            "slot": "1",
            "type": "t_uint256"
          },
          {
            "astId": 4590,
            "contract": "contracts/LotCertificate.sol:LotCertificate",
            "label": "scaScoreTenths",
            "offset": 0,
            "slot": "2",
            "type": "t_uint256"
          },
          {
            "astId": 4592,
            "contract": "contracts/LotCertificate.sol:LotCertificate",
            "label": "returnUsdcUnits",
            "offset": 0,
            "slot": "3",
            "type": "t_uint256"
          },
          {
            "astId": 4594,
            "contract": "contracts/LotCertificate.sol:LotCertificate",
            "label": "settledAt",
            "offset": 0,
            "slot": "4",
            "type": "t_uint256"
          }
        ],
        "numberOfBytes": "160"
      },
      "t_struct(RoleData)21_storage": {
        "encoding": "inplace",
        "label": "struct AccessControl.RoleData",
        "members": [
          {
            "astId": 18,
            "contract": "contracts/LotCertificate.sol:LotCertificate",
            "label": "hasRole",
            "offset": 0,
            "slot": "0",
            "type": "t_mapping(t_address,t_bool)"
          },
          {
            "astId": 20,
            "contract": "contracts/LotCertificate.sol:LotCertificate",
            "label": "adminRole",
            "offset": 0,
            "slot": "1",
            "type": "t_bytes32"
          }
        ],
        "numberOfBytes": "64"
      },
      "t_uint256": {
        "encoding": "inplace",
        "label": "uint256",
        "numberOfBytes": "32"
      }
    }
  }
}