{
  "address": "0x5Cfb45ed81b805063030B446515Bc240Ec32fa0e",
  "abi": [
    {
      "inputs": [
        {
          "internalType": "contract IERC20",
          "name": "_usdc",
          "type": "address"
        },
        {
          "internalType": "contract ILotCertificate",
          "name": "_certificate",
          "type": "address"
        },
        {
          "internalType": "address",
          "name": "_escrowWallet",
          "type": "address"
        },
        {
          "internalType": "address",
          "name": "admin",
          "type": "address"
        }
      ],
      "stateMutability": "nonpayable",
      "type": "constructor"
    },
    {
      "inputs": [],
      "name": "AccessControlBadConfirmation",
      "type": "error"
    },
    {
      "inputs": [
        {
          "internalType": "address",
          "name": "account",
          "type": "address"
        },
        {
          "internalType": "bytes32",
          "name": "neededRole",
          "type": "bytes32"
        }
      ],
      "name": "AccessControlUnauthorizedAccount",
      "type": "error"
    },
    {
      "inputs": [
        {
          "internalType": "address",
          "name": "target",
          "type": "address"
        }
      ],
      "name": "AddressEmptyCode",
      "type": "error"
    },
    {
      "inputs": [
        {
          "internalType": "address",
          "name": "account",
          "type": "address"
        }
      ],
      "name": "AddressInsufficientBalance",
      "type": "error"
    },
    {
      "inputs": [],
      "name": "FailedInnerCall",
      "type": "error"
    },
    {
      "inputs": [],
      "name": "ReentrancyGuardReentrantCall",
      "type": "error"
    },
    {
      "inputs": [
        {
          "internalType": "address",
          "name": "token",
          "type": "address"
        }
      ],
      "name": "SafeERC20FailedOperation",
      "type": "error"
    },
    {
      "anonymous": false,
      "inputs": [
        {
          "indexed": true,
          "internalType": "uint256",
          "name": "lotId",
          "type": "uint256"
        },
        {
          "indexed": false,
          "internalType": "uint256",
          "name": "ticketUsdcUnits",
          "type": "uint256"
        },
        {
          "indexed": false,
          "internalType": "address",
          "name": "farmerWallet",
          "type": "address"
        },
        {
          "indexed": false,
          "internalType": "bytes32",
          "name": "planHash",
          "type": "bytes32"
        }
      ],
      "name": "LotTermsConfigured",
      "type": "event"
    },
    {
      "anonymous": false,
      "inputs": [
        {
          "indexed": true,
          "internalType": "uint256",
          "name": "partnershipId",
          "type": "uint256"
        },
        {
          "indexed": true,
          "internalType": "uint256",
          "name": "lotId",
          "type": "uint256"
        },
        {
          "indexed": true,
          "internalType": "address",
          "name": "partner",
          "type": "address"
        },
        {
          "indexed": false,
          "internalType": "uint256",
          "name": "ticketUsdcUnits",
          "type": "uint256"
        },
        {
          "indexed": false,
          "internalType": "bytes32",
          "name": "proposalHash",
          "type": "bytes32"
        }
      ],
      "name": "PartnershipOpened",
      "type": "event"
    },
    {
      "anonymous": false,
      "inputs": [
        {
          "indexed": true,
          "internalType": "bytes32",
          "name": "role",
          "type": "bytes32"
        },
        {
          "indexed": true,
          "internalType": "bytes32",
          "name": "previousAdminRole",
          "type": "bytes32"
        },
        {
          "indexed": true,
          "internalType": "bytes32",
          "name": "newAdminRole",
          "type": "bytes32"
        }
      ],
      "name": "RoleAdminChanged",
      "type": "event"
    },
    {
      "anonymous": false,
      "inputs": [
        {
          "indexed": true,
          "internalType": "bytes32",
          "name": "role",
          "type": "bytes32"
        },
        {
          "indexed": true,
          "internalType": "address",
          "name": "account",
          "type": "address"
        },
        {
          "indexed": true,
          "internalType": "address",
          "name": "sender",
          "type": "address"
        }
      ],
      "name": "RoleGranted",
      "type": "event"
    },
    {
      "anonymous": false,
      "inputs": [
        {
          "indexed": true,
          "internalType": "bytes32",
          "name": "role",
          "type": "bytes32"
        },
        {
          "indexed": true,
          "internalType": "address",
          "name": "account",
          "type": "address"
        },
        {
          "indexed": true,
          "internalType": "address",
          "name": "sender",
          "type": "address"
        }
      ],
      "name": "RoleRevoked",
      "type": "event"
    },
    {
      "inputs": [],
      "name": "CONFIGURATOR_ROLE",
      "outputs": [
        {
          "internalType": "bytes32",
          "name": "",
          "type": "bytes32"
        }
      ],
      "stateMutability": "view",
      "type": "function"
    },
    {
      "inputs": [],
      "name": "DEFAULT_ADMIN_ROLE",
      "outputs": [
        {
          "internalType": "bytes32",
          "name": "",
          "type": "bytes32"
        }
      ],
      "stateMutability": "view",
      "type": "function"
    },
    {
      "inputs": [],
      "name": "certificate",
      "outputs": [
        {
          "internalType": "contract ILotCertificate",
          "name": "",
          "type": "address"
        }
      ],
      "stateMutability": "view",
      "type": "function"
    },
    {
      "inputs": [
        {
          "internalType": "uint256",
          "name": "lotId",
          "type": "uint256"
        },
        {
          "internalType": "uint256",
          "name": "ticketUsdcUnits",
          "type": "uint256"
        },
        {
          "internalType": "address",
          "name": "farmerWallet",
          "type": "address"
        },
        {
          "internalType": "bytes32",
          "name": "planHash",
          "type": "bytes32"
        }
      ],
      "name": "configureLotTerms",
      "outputs": [],
      "stateMutability": "nonpayable",
      "type": "function"
    },
    {
      "inputs": [],
      "name": "escrowWallet",
      "outputs": [
        {
          "internalType": "address",
          "name": "",
          "type": "address"
        }
      ],
      "stateMutability": "view",
      "type": "function"
    },
    {
      "inputs": [
        {
          "internalType": "uint256",
          "name": "lotId",
          "type": "uint256"
        },
        {
          "internalType": "address",
          "name": "partner",
          "type": "address"
        }
      ],
      "name": "expectedProposalHash",
      "outputs": [
        {
          "internalType": "bytes32",
          "name": "",
          "type": "bytes32"
        }
      ],
      "stateMutability": "view",
      "type": "function"
    },
    {
      "inputs": [
        {
          "internalType": "uint256",
          "name": "",
          "type": "uint256"
        }
      ],
      "name": "farmerOf",
      "outputs": [
        {
          "internalType": "address",
          "name": "",
          "type": "address"
        }
      ],
      "stateMutability": "view",
      "type": "function"
    },
    {
      "inputs": [
        {
          "internalType": "bytes32",
          "name": "role",
          "type": "bytes32"
        }
      ],
      "name": "getRoleAdmin",
      "outputs": [
        {
          "internalType": "bytes32",
          "name": "",
          "type": "bytes32"
        }
      ],
      "stateMutability": "view",
      "type": "function"
    },
    {
      "inputs": [
        {
          "internalType": "bytes32",
          "name": "role",
          "type": "bytes32"
        },
        {
          "internalType": "address",
          "name": "account",
          "type": "address"
        }
      ],
      "name": "grantRole",
      "outputs": [],
      "stateMutability": "nonpayable",
      "type": "function"
    },
    {
      "inputs": [
        {
          "internalType": "bytes32",
          "name": "role",
          "type": "bytes32"
        },
        {
          "internalType": "address",
          "name": "account",
          "type": "address"
        }
      ],
      "name": "hasRole",
      "outputs": [
        {
          "internalType": "bool",
          "name": "",
          "type": "bool"
        }
      ],
      "stateMutability": "view",
      "type": "function"
    },
    {
      "inputs": [
        {
          "internalType": "uint256",
          "name": "",
          "type": "uint256"
        }
      ],
      "name": "lotTerms",
      "outputs": [
        {
          "internalType": "bool",
          "name": "active",
          "type": "bool"
        },
        {
          "internalType": "uint256",
          "name": "ticketUsdcUnits",
          "type": "uint256"
        },
        {
          "internalType": "address",
          "name": "farmerWallet",
          "type": "address"
        },
        {
          "internalType": "bytes32",
          "name": "planHash",
          "type": "bytes32"
        }
      ],
      "stateMutability": "view",
      "type": "function"
    },
    {
      "inputs": [],
      "name": "nextPartnershipId",
      "outputs": [
        {
          "internalType": "uint256",
          "name": "",
          "type": "uint256"
        }
      ],
      "stateMutability": "view",
      "type": "function"
    },
    {
      "inputs": [
        {
          "internalType": "uint256",
          "name": "lotId",
          "type": "uint256"
        },
        {
          "internalType": "bytes32",
          "name": "proposalHash",
          "type": "bytes32"
        }
      ],
      "name": "openPartnership",
      "outputs": [
        {
          "internalType": "uint256",
          "name": "partnershipId",
          "type": "uint256"
        }
      ],
      "stateMutability": "nonpayable",
      "type": "function"
    },
    {
      "inputs": [
        {
          "internalType": "bytes32",
          "name": "",
          "type": "bytes32"
        }
      ],
      "name": "openedProposalHashes",
      "outputs": [
        {
          "internalType": "bool",
          "name": "",
          "type": "bool"
        }
      ],
      "stateMutability": "view",
      "type": "function"
    },
    {
      "inputs": [
        {
          "internalType": "uint256",
          "name": "",
          "type": "uint256"
        }
      ],
      "name": "partnerOf",
      "outputs": [
        {
          "internalType": "address",
          "name": "",
          "type": "address"
        }
      ],
      "stateMutability": "view",
      "type": "function"
    },
    {
      "inputs": [
        {
          "internalType": "bytes32",
          "name": "role",
          "type": "bytes32"
        },
        {
          "internalType": "address",
          "name": "callerConfirmation",
          "type": "address"
        }
      ],
      "name": "renounceRole",
      "outputs": [],
      "stateMutability": "nonpayable",
      "type": "function"
    },
    {
      "inputs": [
        {
          "internalType": "bytes32",
          "name": "role",
          "type": "bytes32"
        },
        {
          "internalType": "address",
          "name": "account",
          "type": "address"
        }
      ],
      "name": "revokeRole",
      "outputs": [],
      "stateMutability": "nonpayable",
      "type": "function"
    },
    {
      "inputs": [
        {
          "internalType": "bytes4",
          "name": "interfaceId",
          "type": "bytes4"
        }
      ],
      "name": "supportsInterface",
      "outputs": [
        {
          "internalType": "bool",
          "name": "",
          "type": "bool"
        }
      ],
      "stateMutability": "view",
      "type": "function"
    },
    {
      "inputs": [],
      "name": "usdc",
      "outputs": [
        {
          "internalType": "contract IERC20",
          "name": "",
          "type": "address"
        }
      ],
      "stateMutability": "view",
      "type": "function"
    }
  ],
  "transactionHash": "0xc67abf714e6e4af2aba459a1fcc7d9276cb82a4b9ddf931c7eee982516c5d2bb",
  "args": [
    "0xc61D150cF924054d564183B53E35f546C676A0F9",
    "0x4aFBB4F2737E739B833E99C7a6b3d3dEd7fbB39c",
    "0x686EE65b45Aa460CbAE7e53AAE91B481a73ed63f",
    "0x686EE65b45Aa460CbAE7e53AAE91B481a73ed63f"
  ],
  "numDeployments": 1,
  "solcInputHash": "48852bfafb7c717ff8a63148503273e6",
  "bytecode": "0x60e0604052600160025534801561001557600080fd5b5060405161124c38038061124c833981016040819052610034916101af565b600180556001600160a01b0382166100925760405162461bcd60e51b815260206004820152601f60248201527f506172746e657273686970466163746f72793a20657363726f77207a65726f00604482015260640160405180910390fd5b6001600160a01b0380851660805283811660a052821660c0526100b66000826100eb565b506100e17f3b49a237fe2d18fa4d9642b8a0e065923cceb71b797783b619a030a61d848bf0826100eb565b505050505061020e565b6000828152602081815260408083206001600160a01b038516845290915281205460ff1661018d576000838152602081815260408083206001600160a01b03861684529091529020805460ff191660011790556101453390565b6001600160a01b0316826001600160a01b0316847f2f8788117e7eff1d82e926ec794901d17c78024a50270940304540a733656f0d60405160405180910390a4506001610191565b5060005b92915050565b6001600160a01b03811681146101ac57600080fd5b50565b600080600080608085870312156101c557600080fd5b84516101d081610197565b60208601519094506101e181610197565b60408601519093506101f281610197565b606086015190925061020381610197565b939692955090935050565b60805160a05160c051610ffa610252600039600081816102d901526109ca0152600081816101970152610a120152600081816101fe01526109a40152610ffa6000f3fe608060405234801561001057600080fd5b50600436106101215760003560e01c8063873d16ac116100ad578063c12c6f3c11610071578063c12c6f3c1461032c578063d547741f1461033f578063d853015e14610352578063e09e632214610379578063e2aeef191461038c57600080fd5b8063873d16ac1461029e57806391d14854146102c157806392d3be79146102d4578063a217fddf146102fb578063b540281e1461030357600080fd5b80632f2ff15d116100f45780632f2ff15d146101d157806336568abe146101e65780633e413bee146101f9578063496970a3146102205780634df7059d1461022957600080fd5b806301ffc9a7146101265780631a2f93c61461014e578063248a9ca31461016f5780632dbf7b9814610192575b600080fd5b610139610134366004610e49565b6103b5565b60405190151581526020015b60405180910390f35b61016161015c366004610e8f565b6103ec565b604051908152602001610145565b61016161017d366004610ebb565b60009081526020819052604090206001015490565b6101b97f000000000000000000000000000000000000000000000000000000000000000081565b6040516001600160a01b039091168152602001610145565b6101e46101df366004610e8f565b6104f3565b005b6101e46101f4366004610e8f565b61051e565b6101b97f000000000000000000000000000000000000000000000000000000000000000081565b61016160025481565b61026d610237366004610ebb565b6003602081905260009182526040909120805460018201546002830154929093015460ff90911692916001600160a01b03169084565b6040516101459493929190931515845260208401929092526001600160a01b03166040830152606082015260800190565b6101396102ac366004610ebb565b60046020526000908152604090205460ff1681565b6101396102cf366004610e8f565b610556565b6101b97f000000000000000000000000000000000000000000000000000000000000000081565b610161600081565b6101b9610311366004610ebb565b6005602052600090815260409020546001600160a01b031681565b6101e461033a366004610ed4565b61057f565b6101e461034d366004610e8f565b610750565b6101617f3b49a237fe2d18fa4d9642b8a0e065923cceb71b797783b619a030a61d848bf081565b610161610387366004610f11565b610775565b6101b961039a366004610ebb565b6006602052600090815260409020546001600160a01b031681565b60006001600160e01b03198216637965db0b60e01b14806103e657506301ffc9a760e01b6001600160e01b03198316145b92915050565b60008281526003602081815260408084208151608081018352815460ff16151580825260018301549482019490945260028201546001600160a01b03169281019290925290920154606083015261048a5760405162461bcd60e51b815260206004820181905260248201527f506172746e657273686970466163746f72793a206c6f7420696e61637469766560448201526064015b60405180910390fd5b602081810151604080840151606094850151825146818701523081850152958601989098526001600160a01b03968716608086015260a0850192909252941660c083015260e0808301959095528351808303909501855261010090910190925250815191012090565b60008281526020819052604090206001015461050e81610ae4565b6105188383610af1565b50505050565b6001600160a01b03811633146105475760405163334bd91960e11b815260040160405180910390fd5b6105518282610b83565b505050565b6000918252602082815260408084206001600160a01b0393909316845291905290205460ff1690565b7f3b49a237fe2d18fa4d9642b8a0e065923cceb71b797783b619a030a61d848bf06105a981610ae4565b600084116105f95760405162461bcd60e51b815260206004820152601f60248201527f506172746e657273686970466163746f72793a207469636b6574207a65726f006044820152606401610481565b6001600160a01b03831661064f5760405162461bcd60e51b815260206004820152601f60248201527f506172746e657273686970466163746f72793a206661726d6572207a65726f006044820152606401610481565b816106915760405162461bcd60e51b81526020600482015260126024820152711c1b185b881a185cda081c995c5d5a5c995960721b6044820152606401610481565b60408051608081018252600180825260208083018881526001600160a01b0388811685870181815260608088018b815260008f81526003808952908b902099518a5460ff1916901515178a5595519789019790975590516002880180546001600160a01b03191691909416179092559351949091019390935583518881529081019190915291820184905286917f72af0a7781ded80540d4f3b2eb67d8213ff27afc08b0a8370279bbc3d6260cf2910160405180910390a25050505050565b60008281526020819052604090206001015461076b81610ae4565b6105188383610b83565b600061077f610bee565b6000838152600360208181526040928390208351608081018552815460ff16151580825260018301549382019390935260028201546001600160a01b0316948101949094529091015460608301526108195760405162461bcd60e51b815260206004820181905260248201527f506172746e657273686970466163746f72793a206c6f7420696e6163746976656044820152606401610481565b826108665760405162461bcd60e51b815260206004820152601d60248201527f506172746e657273686970466163746f72793a2068617368207a65726f0000006044820152606401610481565b61087084336103ec565b83146108c85760405162461bcd60e51b815260206004820152602160248201527f506172746e657273686970466163746f72793a2068617368206d69736d6174636044820152600d60fb1b6064820152608401610481565b60008381526004602052604090205460ff16156109275760405162461bcd60e51b815260206004820152601d60248201527f506172746e657273686970466163746f72793a206861736820757365640000006044820152606401610481565b6000838152600460205260408120805460ff19166001179055600280549161094e83610f33565b9091555060008181526005602090815260408083208054336001600160a01b0319918216811790925586830151600685529290942080549094166001600160a01b0392831617909355908401519294506109ef927f000000000000000000000000000000000000000000000000000000000000000090911691907f000000000000000000000000000000000000000000000000000000000000000090610c18565b6040516342a4a8c960e01b815233600482015260248101839052604481018490527f00000000000000000000000000000000000000000000000000000000000000006001600160a01b0316906342a4a8c9906064016020604051808303816000875af1158015610a63573d6000803e3d6000fd5b505050506040513d601f19601f82011682018060405250810190610a879190610f5a565b50336001600160a01b031684837f3ef55818fa97c6b0171d03821cbc0a223b3276b5ee708e14cd0b471644aa3569846020015187604051610ad2929190918252602082015260400190565b60405180910390a4506103e660018055565b610aee8133610c72565b50565b6000610afd8383610556565b610b7b576000838152602081815260408083206001600160a01b03861684529091529020805460ff19166001179055610b333390565b6001600160a01b0316826001600160a01b0316847f2f8788117e7eff1d82e926ec794901d17c78024a50270940304540a733656f0d60405160405180910390a45060016103e6565b5060006103e6565b6000610b8f8383610556565b15610b7b576000838152602081815260408083206001600160a01b0386168085529252808320805460ff1916905551339286917ff6391f5c32d9c69d2a47ea670b442974b53935d1edc7fd64eb21e047a839171b9190a45060016103e6565b600260015403610c1157604051633ee5aeb560e01b815260040160405180910390fd5b6002600155565b604080516001600160a01b0385811660248301528416604482015260648082018490528251808303909101815260849091019091526020810180516001600160e01b03166323b872dd60e01b179052610518908590610caf565b610c7c8282610556565b610cab5760405163e2517d3f60e01b81526001600160a01b038216600482015260248101839052604401610481565b5050565b6000610cc46001600160a01b03841683610d12565b90508051600014158015610ce9575080806020019051810190610ce79190610f73565b155b1561055157604051635274afe760e01b81526001600160a01b0384166004820152602401610481565b6060610d2083836000610d27565b9392505050565b606081471015610d4c5760405163cd78605960e01b8152306004820152602401610481565b600080856001600160a01b03168486604051610d689190610f95565b60006040518083038185875af1925050503d8060008114610da5576040519150601f19603f3d011682016040523d82523d6000602084013e610daa565b606091505b5091509150610dba868383610dc4565b9695505050505050565b606082610dd957610dd482610e20565b610d20565b8151158015610df057506001600160a01b0384163b155b15610e1957604051639996b31560e01b81526001600160a01b0385166004820152602401610481565b5080610d20565b805115610e305780518082602001fd5b604051630a12f52160e11b815260040160405180910390fd5b600060208284031215610e5b57600080fd5b81356001600160e01b031981168114610d2057600080fd5b80356001600160a01b0381168114610e8a57600080fd5b919050565b60008060408385031215610ea257600080fd5b82359150610eb260208401610e73565b90509250929050565b600060208284031215610ecd57600080fd5b5035919050565b60008060008060808587031215610eea57600080fd5b8435935060208501359250610f0160408601610e73565b9396929550929360600135925050565b60008060408385031215610f2457600080fd5b50508035926020909101359150565b600060018201610f5357634e487b7160e01b600052601160045260246000fd5b5060010190565b600060208284031215610f6c57600080fd5b5051919050565b600060208284031215610f8557600080fd5b81518015158114610d2057600080fd5b6000825160005b81811015610fb65760208186018101518583015201610f9c565b50600092019182525091905056fea264697066735822122058a6987d847601b5baad6806fa4a65e81f03abd6c272c024fd91ce44680f06d864736f6c634300081e0033",
  "devdoc": {
    "errors": {
      "AccessControlBadConfirmation()": [
        {
          "details": "The caller of a function is not the expected one. NOTE: Don't confuse with {AccessControlUnauthorizedAccount}."
        }
      ],
      "AccessControlUnauthorizedAccount(address,bytes32)": [
        {
          "details": "The `account` is missing a role."
        }
      ],
      "AddressEmptyCode(address)": [
        {
          "details": "There's no code at `target` (it is not a contract)."
        }
      ],
      "AddressInsufficientBalance(address)": [
        {
          "details": "The ETH balance of the account is not enough to perform the operation."
        }
      ],
      "FailedInnerCall()": [
        {
          "details": "A call to an address target failed. The target may have reverted."
        }
      ],
      "ReentrancyGuardReentrantCall()": [
        {
          "details": "Unauthorized reentrant call."
        }
      ],
      "SafeERC20FailedOperation(address)": [
        {
          "details": "An operation with an ERC20 token failed."
        }
      ]
    },
    "events": {
      "RoleAdminChanged(bytes32,bytes32,bytes32)": {
        "details": "Emitted when `newAdminRole` is set as ``role``'s admin role, replacing `previousAdminRole` `DEFAULT_ADMIN_ROLE` is the starting admin for all roles, despite {RoleAdminChanged} not being emitted signaling this."
      },
      "RoleGranted(bytes32,address,address)": {
        "details": "Emitted when `account` is granted `role`. `sender` is the account that originated the contract call, an admin role bearer except when using {AccessControl-_setupRole}."
      },
      "RoleRevoked(bytes32,address,address)": {
        "details": "Emitted when `account` is revoked `role`. `sender` is the account that originated the contract call:   - if using `revokeRole`, it is the admin role bearer   - if using `renounceRole`, it is the role bearer (i.e. `account`)"
      }
    },
    "kind": "dev",
    "methods": {
      "getRoleAdmin(bytes32)": {
        "details": "Returns the admin role that controls `role`. See {grantRole} and {revokeRole}. To change a role's admin, use {_setRoleAdmin}."
      },
      "grantRole(bytes32,address)": {
        "details": "Grants `role` to `account`. If `account` had not been already granted `role`, emits a {RoleGranted} event. Requirements: - the caller must have ``role``'s admin role. May emit a {RoleGranted} event."
      },
      "hasRole(bytes32,address)": {
        "details": "Returns `true` if `account` has been granted `role`."
      },
      "renounceRole(bytes32,address)": {
        "details": "Revokes `role` from the calling account. Roles are often managed via {grantRole} and {revokeRole}: this function's purpose is to provide a mechanism for accounts to lose their privileges if they are compromised (such as when a trusted device is misplaced). If the calling account had been revoked `role`, emits a {RoleRevoked} event. Requirements: - the caller must be `callerConfirmation`. May emit a {RoleRevoked} event."
      },
      "revokeRole(bytes32,address)": {
        "details": "Revokes `role` from `account`. If `account` had been granted `role`, emits a {RoleRevoked} event. Requirements: - the caller must have ``role``'s admin role. May emit a {RoleRevoked} event."
      },
      "supportsInterface(bytes4)": {
        "details": "See {IERC165-supportsInterface}."
      }
    },
    "version": 1
  },
  "userdoc": {
    "kind": "user",
    "methods": {},
    "version": 1
  },
  "storageLayout": {
    "storage": [
      {
        "astId": 26,
        "contract": "contracts/PartnershipFactory.sol:PartnershipFactory",
        "label": "_roles",
        "offset": 0,
        "slot": "0",
        "type": "t_mapping(t_bytes32,t_struct(RoleData)21_storage)"
      },
      {
        "astId": 2973,
        "contract": "contracts/PartnershipFactory.sol:PartnershipFactory",
        "label": "_status",
        "offset": 0,
        "slot": "1",
        "type": "t_uint256"
      },
      {
        "astId": 5098,
        "contract": "contracts/PartnershipFactory.sol:PartnershipFactory",
        "label": "nextPartnershipId",
        "offset": 0,
        "slot": "2",
        "type": "t_uint256"
      },
      {
        "astId": 5103,
        "contract": "contracts/PartnershipFactory.sol:PartnershipFactory",
        "label": "lotTerms",
        "offset": 0,
        "slot": "3",
        "type": "t_mapping(t_uint256,t_struct(LotTerms)5095_storage)"
      },
      {
        "astId": 5107,
        "contract": "contracts/PartnershipFactory.sol:PartnershipFactory",
        "label": "openedProposalHashes",
        "offset": 0,
        "slot": "4",
        "type": "t_mapping(t_bytes32,t_bool)"
      },
      {
        "astId": 5111,
        "contract": "contracts/PartnershipFactory.sol:PartnershipFactory",
        "label": "partnerOf",
        "offset": 0,
        "slot": "5",
        "type": "t_mapping(t_uint256,t_address)"
      },
      {
        "astId": 5115,
        "contract": "contracts/PartnershipFactory.sol:PartnershipFactory",
        "label": "farmerOf",
        "offset": 0,
        "slot": "6",
        "type": "t_mapping(t_uint256,t_address)"
      }
    ],
    "types": {
      "t_address": {
        "encoding": "inplace",
        "label": "address",
        "numberOfBytes": "20"
      },
      "t_bool": {
        "encoding": "inplace",
        "label": "bool",
        "numberOfBytes": "1"
      },
      "t_bytes32": {
        "encoding": "inplace",
        "label": "bytes32",
        "numberOfBytes": "32"
      },
      "t_mapping(t_address,t_bool)": {
        "encoding": "mapping",
        "key": "t_address",
        "label": "mapping(address => bool)",
        "numberOfBytes": "32",
        "value": "t_bool"
      },
      "t_mapping(t_bytes32,t_bool)": {
        "encoding": "mapping",
        "key": "t_bytes32",
        "label": "mapping(bytes32 => bool)",
        "numberOfBytes": "32",
        "value": "t_bool"
      },
      "t_mapping(t_bytes32,t_struct(RoleData)21_storage)": {
        "encoding": "mapping",
        "key": "t_bytes32",
        "label": "mapping(bytes32 => struct AccessControl.RoleData)",
        "numberOfBytes": "32",
        "value": "t_struct(RoleData)21_storage"
      },
      "t_mapping(t_uint256,t_address)": {
        "encoding": "mapping",
        "key": "t_uint256",
        "label": "mapping(uint256 => address)",
        "numberOfBytes": "32",
        "value": "t_address"
      },
      "t_mapping(t_uint256,t_struct(LotTerms)5095_storage)": {
        "encoding": "mapping",
        "key": "t_uint256",
        "label": "mapping(uint256 => struct PartnershipFactory.LotTerms)",
        "numberOfBytes": "32",
        "value": "t_struct(LotTerms)5095_storage"
      },
      "t_struct(LotTerms)5095_storage": {
        "encoding": "inplace",
        "label": "struct PartnershipFactory.LotTerms",
        "members": [
          {
            "astId": 5088,
            "contract": "contracts/PartnershipFactory.sol:PartnershipFactory",
            "label": "active",
            "offset": 0,
            "slot": "0",
            "type": "t_bool"
          },
          {
            "astId": 5090,
            "contract": "contracts/PartnershipFactory.sol:PartnershipFactory",
            "label": "ticketUsdcUnits",
            "offset": 0,
            "slot": "1",
            "type": "t_uint256"
          },
          {
            "astId": 5092,
            "contract": "contracts/PartnershipFactory.sol:PartnershipFactory",
            "label": "farmerWallet",
            "offset": 0,
            "slot": "2",
            "type": "t_address"
          },
          {
            "astId": 5094,
            "contract": "contracts/PartnershipFactory.sol:PartnershipFactory",
            "label": "planHash",
            "offset": 0,
            "slot": "3",
            "type": "t_bytes32"
          }
        ],
        "numberOfBytes": "128"
      },
      "t_struct(RoleData)21_storage": {
        "encoding": "inplace",
        "label": "struct AccessControl.RoleData",
        "members": [
          {
            "astId": 18,
            "contract": "contracts/PartnershipFactory.sol:PartnershipFactory",
            "label": "hasRole",
            "offset": 0,
            "slot": "0",
            "type": "t_mapping(t_address,t_bool)"
          },
          {
            "astId": 20,
            "contract": "contracts/PartnershipFactory.sol:PartnershipFactory",
            "label": "adminRole",
            "offset": 0,
            "slot": "1",
            "type": "t_bytes32"
          }
        ],
        "numberOfBytes": "64"
      },
      "t_uint256": {
        "encoding": "inplace",
        "label": "uint256",
        "numberOfBytes": "32"
      }
    }
  }
}