{
  "address": "0xFE2fD8ae12c908902074Ed57bb76E8DBd8382919",
  "abi": [
    {
      "inputs": [
        {
          "internalType": "address",
          "name": "_usdc",
          "type": "address"
        },
        {
          "internalType": "address",
          "name": "_registry",
          "type": "address"
        },
        {
          "internalType": "address",
          "name": "admin",
          "type": "address"
        }
      ],
      "stateMutability": "nonpayable",
      "type": "constructor"
    },
    {
      "inputs": [],
      "name": "AccessControlBadConfirmation",
      "type": "error"
    },
    {
      "inputs": [
        {
          "internalType": "address",
          "name": "account",
          "type": "address"
        },
        {
          "internalType": "bytes32",
          "name": "neededRole",
          "type": "bytes32"
        }
      ],
      "name": "AccessControlUnauthorizedAccount",
      "type": "error"
    },
    {
      "inputs": [
        {
          "internalType": "address",
          "name": "target",
          "type": "address"
        }
      ],
      "name": "AddressEmptyCode",
      "type": "error"
    },
    {
      "inputs": [
        {
          "internalType": "address",
          "name": "account",
          "type": "address"
        }
      ],
      "name": "AddressInsufficientBalance",
      "type": "error"
    },
    {
      "inputs": [],
      "name": "FailedInnerCall",
      "type": "error"
    },
    {
      "inputs": [],
      "name": "ReentrancyGuardReentrantCall",
      "type": "error"
    },
    {
      "inputs": [
        {
          "internalType": "address",
          "name": "token",
          "type": "address"
        }
      ],
      "name": "SafeERC20FailedOperation",
      "type": "error"
    },
    {
      "anonymous": false,
      "inputs": [
        {
          "indexed": true,
          "internalType": "bytes32",
          "name": "role",
          "type": "bytes32"
        },
        {
          "indexed": true,
          "internalType": "bytes32",
          "name": "previousAdminRole",
          "type": "bytes32"
        },
        {
          "indexed": true,
          "internalType": "bytes32",
          "name": "newAdminRole",
          "type": "bytes32"
        }
      ],
      "name": "RoleAdminChanged",
      "type": "event"
    },
    {
      "anonymous": false,
      "inputs": [
        {
          "indexed": true,
          "internalType": "bytes32",
          "name": "role",
          "type": "bytes32"
        },
        {
          "indexed": true,
          "internalType": "address",
          "name": "account",
          "type": "address"
        },
        {
          "indexed": true,
          "internalType": "address",
          "name": "sender",
          "type": "address"
        }
      ],
      "name": "RoleGranted",
      "type": "event"
    },
    {
      "anonymous": false,
      "inputs": [
        {
          "indexed": true,
          "internalType": "bytes32",
          "name": "role",
          "type": "bytes32"
        },
        {
          "indexed": true,
          "internalType": "address",
          "name": "account",
          "type": "address"
        },
        {
          "indexed": true,
          "internalType": "address",
          "name": "sender",
          "type": "address"
        }
      ],
      "name": "RoleRevoked",
      "type": "event"
    },
    {
      "anonymous": false,
      "inputs": [
        {
          "indexed": true,
          "internalType": "uint256",
          "name": "partnershipId",
          "type": "uint256"
        },
        {
          "indexed": false,
          "internalType": "uint256",
          "name": "revenueCents",
          "type": "uint256"
        },
        {
          "indexed": false,
          "internalType": "uint256",
          "name": "profitCents",
          "type": "uint256"
        },
        {
          "indexed": false,
          "internalType": "uint256",
          "name": "farmerCents",
          "type": "uint256"
        },
        {
          "indexed": false,
          "internalType": "uint256",
          "name": "partnerCents",
          "type": "uint256"
        },
        {
          "indexed": false,
          "internalType": "bytes32",
          "name": "evidenceHash",
          "type": "bytes32"
        },
        {
          "indexed": false,
          "internalType": "uint256",
          "name": "scaScoreTenths",
          "type": "uint256"
        }
      ],
      "name": "SettlementExecuted",
      "type": "event"
    },
    {
      "inputs": [],
      "name": "AGRONOMIC_COST_CENTS",
      "outputs": [
        {
          "internalType": "uint256",
          "name": "",
          "type": "uint256"
        }
      ],
      "stateMutability": "view",
      "type": "function"
    },
    {
      "inputs": [],
      "name": "BPS",
      "outputs": [
        {
          "internalType": "uint256",
          "name": "",
          "type": "uint256"
        }
      ],
      "stateMutability": "view",
      "type": "function"
    },
    {
      "inputs": [],
      "name": "DEFAULT_ADMIN_ROLE",
      "outputs": [
        {
          "internalType": "bytes32",
          "name": "",
          "type": "bytes32"
        }
      ],
      "stateMutability": "view",
      "type": "function"
    },
    {
      "inputs": [],
      "name": "FARMER_SHARE_BPS",
      "outputs": [
        {
          "internalType": "uint256",
          "name": "",
          "type": "uint256"
        }
      ],
      "stateMutability": "view",
      "type": "function"
    },
    {
      "inputs": [],
      "name": "PARCHMENT_TO_GREEN_TENTHS",
      "outputs": [
        {
          "internalType": "uint256",
          "name": "",
          "type": "uint256"
        }
      ],
      "stateMutability": "view",
      "type": "function"
    },
    {
      "inputs": [],
      "name": "PRICE_BASE_CENTS",
      "outputs": [
        {
          "internalType": "uint256",
          "name": "",
          "type": "uint256"
        }
      ],
      "stateMutability": "view",
      "type": "function"
    },
    {
      "inputs": [],
      "name": "PRICE_FLOOR_CENTS",
      "outputs": [
        {
          "internalType": "uint256",
          "name": "",
          "type": "uint256"
        }
      ],
      "stateMutability": "view",
      "type": "function"
    },
    {
      "inputs": [],
      "name": "SETTLEMENT_OPERATOR_ROLE",
      "outputs": [
        {
          "internalType": "bytes32",
          "name": "",
          "type": "bytes32"
        }
      ],
      "stateMutability": "view",
      "type": "function"
    },
    {
      "inputs": [],
      "name": "YIELD_CAP_Y1_TENTHS",
      "outputs": [
        {
          "internalType": "uint256",
          "name": "",
          "type": "uint256"
        }
      ],
      "stateMutability": "view",
      "type": "function"
    },
    {
      "inputs": [],
      "name": "certificate",
      "outputs": [
        {
          "internalType": "contract ILotCertificate",
          "name": "",
          "type": "address"
        }
      ],
      "stateMutability": "view",
      "type": "function"
    },
    {
      "inputs": [
        {
          "internalType": "bytes32",
          "name": "role",
          "type": "bytes32"
        }
      ],
      "name": "getRoleAdmin",
      "outputs": [
        {
          "internalType": "bytes32",
          "name": "",
          "type": "bytes32"
        }
      ],
      "stateMutability": "view",
      "type": "function"
    },
    {
      "inputs": [
        {
          "internalType": "bytes32",
          "name": "role",
          "type": "bytes32"
        },
        {
          "internalType": "address",
          "name": "account",
          "type": "address"
        }
      ],
      "name": "grantRole",
      "outputs": [],
      "stateMutability": "nonpayable",
      "type": "function"
    },
    {
      "inputs": [
        {
          "internalType": "bytes32",
          "name": "role",
          "type": "bytes32"
        },
        {
          "internalType": "address",
          "name": "account",
          "type": "address"
        }
      ],
      "name": "hasRole",
      "outputs": [
        {
          "internalType": "bool",
          "name": "",
          "type": "bool"
        }
      ],
      "stateMutability": "view",
      "type": "function"
    },
    {
      "inputs": [
        {
          "components": [
            {
              "internalType": "uint256",
              "name": "partnershipId",
              "type": "uint256"
            },
            {
              "internalType": "uint256",
              "name": "yieldTenthsQQ",
              "type": "uint256"
            },
            {
              "internalType": "bytes32",
              "name": "evidenceHash",
              "type": "bytes32"
            },
            {
              "internalType": "uint256",
              "name": "scaScoreTenths",
              "type": "uint256"
            }
          ],
          "internalType": "struct SettlementDistributor.SettlementInput",
          "name": "input",
          "type": "tuple"
        }
      ],
      "name": "preview",
      "outputs": [
        {
          "internalType": "uint256",
          "name": "revenueCents",
          "type": "uint256"
        },
        {
          "internalType": "uint256",
          "name": "profitCents",
          "type": "uint256"
        },
        {
          "internalType": "uint256",
          "name": "farmerCents",
          "type": "uint256"
        },
        {
          "internalType": "uint256",
          "name": "partnerCents",
          "type": "uint256"
        }
      ],
      "stateMutability": "pure",
      "type": "function"
    },
    {
      "inputs": [],
      "name": "registry",
      "outputs": [
        {
          "internalType": "contract IPartnershipRegistry",
          "name": "",
          "type": "address"
        }
      ],
      "stateMutability": "view",
      "type": "function"
    },
    {
      "inputs": [
        {
          "internalType": "bytes32",
          "name": "role",
          "type": "bytes32"
        },
        {
          "internalType": "address",
          "name": "callerConfirmation",
          "type": "address"
        }
      ],
      "name": "renounceRole",
      "outputs": [],
      "stateMutability": "nonpayable",
      "type": "function"
    },
    {
      "inputs": [
        {
          "internalType": "bytes32",
          "name": "role",
          "type": "bytes32"
        },
        {
          "internalType": "address",
          "name": "account",
          "type": "address"
        }
      ],
      "name": "revokeRole",
      "outputs": [],
      "stateMutability": "nonpayable",
      "type": "function"
    },
    {
      "inputs": [
        {
          "internalType": "address",
          "name": "_certificate",
          "type": "address"
        }
      ],
      "name": "setCertificate",
      "outputs": [],
      "stateMutability": "nonpayable",
      "type": "function"
    },
    {
      "inputs": [
        {
          "components": [
            {
              "internalType": "uint256",
              "name": "partnershipId",
              "type": "uint256"
            },
            {
              "internalType": "uint256",
              "name": "yieldTenthsQQ",
              "type": "uint256"
            },
            {
              "internalType": "bytes32",
              "name": "evidenceHash",
              "type": "bytes32"
            },
            {
              "internalType": "uint256",
              "name": "scaScoreTenths",
              "type": "uint256"
            }
          ],
          "internalType": "struct SettlementDistributor.SettlementInput",
          "name": "input",
          "type": "tuple"
        }
      ],
      "name": "settle",
      "outputs": [],
      "stateMutability": "nonpayable",
      "type": "function"
    },
    {
      "inputs": [
        {
          "internalType": "uint256",
          "name": "",
          "type": "uint256"
        }
      ],
      "name": "settled",
      "outputs": [
        {
          "internalType": "bool",
          "name": "",
          "type": "bool"
        }
      ],
      "stateMutability": "view",
      "type": "function"
    },
    {
      "inputs": [
        {
          "internalType": "bytes4",
          "name": "interfaceId",
          "type": "bytes4"
        }
      ],
      "name": "supportsInterface",
      "outputs": [
        {
          "internalType": "bool",
          "name": "",
          "type": "bool"
        }
      ],
      "stateMutability": "view",
      "type": "function"
    },
    {
      "inputs": [],
      "name": "usdc",
      "outputs": [
        {
          "internalType": "contract IERC20",
          "name": "",
          "type": "address"
        }
      ],
      "stateMutability": "view",
      "type": "function"
    }
  ],
  "transactionHash": "0x3cabb75e45a8aaadf2ebe9ff9d42fbefb610aa93217c82f453061d9f8552d08a",
  "args": [
    "0xc61D150cF924054d564183B53E35f546C676A0F9",
    "0x5Cfb45ed81b805063030B446515Bc240Ec32fa0e",
    "0x686EE65b45Aa460CbAE7e53AAE91B481a73ed63f"
  ],
  "numDeployments": 1,
  "solcInputHash": "48852bfafb7c717ff8a63148503273e6",
  "bytecode": "0x60c060405234801561001057600080fd5b50604051610fb1380380610fb183398101604081905261002f9161014d565b600180556001600160a01b03808416608052821660a052610051600082610085565b5061007c7fe5f3d29fbf8cd4b379b5a8ec1437261892bf01e7d129556690f84cf7a11d2c4d82610085565b50505050610190565b6000828152602081815260408083206001600160a01b038516845290915281205460ff16610127576000838152602081815260408083206001600160a01b03861684529091529020805460ff191660011790556100df3390565b6001600160a01b0316826001600160a01b0316847f2f8788117e7eff1d82e926ec794901d17c78024a50270940304540a733656f0d60405160405180910390a450600161012b565b5060005b92915050565b80516001600160a01b038116811461014857600080fd5b919050565b60008060006060848603121561016257600080fd5b61016b84610131565b925061017960208501610131565b915061018760408501610131565b90509250925092565b60805160a051610de76101ca60003960008181610299015281816105c1015261065001526000818161026901526107940152610de76000f3fe608060405234801561001057600080fd5b50600436106101425760003560e01c80634ffbf83a116100b8578063a217fddf1161007c578063a217fddf146102fe578063b56ec75214610306578063c2489f181461030f578063d547741f14610322578063f9e7203014610335578063fa92ecdf1461034857600080fd5b80634ffbf83a1461028b5780637b1039991461029457806389674f9f146102bb5780638a55f680146102e257806391d14854146102eb57600080fd5b8063283457801161010a57806328345780146101bb5780632beec503146101de5780632dbf7b98146102115780632f2ff15d1461023c57806336568abe146102515780633e413bee1461026457600080fd5b806301ffc9a7146101475780630704dd931461016f5780631e7b59a414610187578063248a9ca31461018f578063249d39e9146101b2575b600080fd5b61015a610155366004610c21565b610350565b60405190151581526020015b60405180910390f35b6101796202460881565b604051908152602001610166565b61017960fa81565b61017961019d366004610c4b565b60009081526020819052604090206001015490565b61017961271081565b61015a6101c9366004610c4b565b60036020526000908152604090205460ff1681565b6101f16101ec366004610c64565b610387565b604080519485526020850193909352918301526060820152608001610166565b600254610224906001600160a01b031681565b6040516001600160a01b039091168152602001610166565b61024f61024a366004610c94565b610422565b005b61024f61025f366004610c94565b61044d565b6102247f000000000000000000000000000000000000000000000000000000000000000081565b61017961177081565b6102247f000000000000000000000000000000000000000000000000000000000000000081565b6101797fe5f3d29fbf8cd4b379b5a8ec1437261892bf01e7d129556690f84cf7a11d2c4d81565b61017961034181565b61015a6102f9366004610c94565b610485565b610179600081565b61017961015e81565b61024f61031d366004610cc4565b6104ae565b61024f610330366004610c94565b6104dc565b61024f610343366004610c64565b610501565b610179605081565b60006001600160e01b03198216637965db0b60e01b148061038157506301ffc9a760e01b6001600160e01b03198316145b92915050565b600080600080600060508660200135116103a55785602001356103a8565b60505b905061015e6064816103bc61034185610cf7565b6103c69190610cf7565b6103d09190610d0e565b95506202460886116103e35760006103f0565b6103f06202460887610d30565b945061271061040161177087610cf7565b61040b9190610d0e565b93506104178486610d30565b925050509193509193565b60008281526020819052604090206001015461043d816108c8565b61044783836108d5565b50505050565b6001600160a01b03811633146104765760405163334bd91960e11b815260040160405180910390fd5b6104808282610967565b505050565b6000918252602082815260408084206001600160a01b0393909316845291905290205460ff1690565b60006104b9816108c8565b50600280546001600160a01b0319166001600160a01b0392909216919091179055565b6000828152602081905260409020600101546104f7816108c8565b6104478383610967565b7fe5f3d29fbf8cd4b379b5a8ec1437261892bf01e7d129556690f84cf7a11d2c4d61052b816108c8565b6105336109d2565b813560009081526003602052604090205460ff16156105a85760405162461bcd60e51b815260206004820152602660248201527f536574746c656d656e744469737472696275746f723a20616c72656164792073604482015265195d1d1b195960d21b60648201526084015b60405180910390fd5b60405163e2aeef1960e01b8152823560048201526000907f00000000000000000000000000000000000000000000000000000000000000006001600160a01b03169063e2aeef1990602401602060405180830381865afa158015610610573d6000803e3d6000fd5b505050506040513d601f19601f820116820180604052508101906106349190610d43565b604051635aa0140f60e11b8152843560048201529091506000907f00000000000000000000000000000000000000000000000000000000000000006001600160a01b03169063b540281e90602401602060405180830381865afa15801561069f573d6000803e3d6000fd5b505050506040513d601f19601f820116820180604052508101906106c39190610d43565b90506001600160a01b038216158015906106e557506001600160a01b03811615155b6107405760405162461bcd60e51b815260206004820152602660248201527f536574746c656d656e744469737472696275746f723a2062616420706172746e60448201526506572736869760d41b606482015260840161059f565b60008060008061074f88610387565b8b356000908152600360205260409020805460ff191660011790559296509094509250905081156107bb576107bb8661078a84612710610cf7565b6001600160a01b037f00000000000000000000000000000000000000000000000000000000000000001691906109fc565b80156107d1576107d18561078a83612710610cf7565b6002546001600160a01b0316637244e823893560208b013560608c01356107fa86612710610cf7565b6040516001600160e01b031960e087901b1681526004810194909452602484019290925260448301526064820152608401600060405180830381600087803b15801561084557600080fd5b505af1925050508015610856575060015b5060408051858152602081018590528082018490526060818101849052918a013560808201529089013560a08201528835907fc8164ad010efe56dc959d75086d633df8aea33e7765ce0dfe1095355255077019060c00160405180910390a25050505050506108c460018055565b5050565b6108d28133610a4e565b50565b60006108e18383610485565b61095f576000838152602081815260408083206001600160a01b03861684529091529020805460ff191660011790556109173390565b6001600160a01b0316826001600160a01b0316847f2f8788117e7eff1d82e926ec794901d17c78024a50270940304540a733656f0d60405160405180910390a4506001610381565b506000610381565b60006109738383610485565b1561095f576000838152602081815260408083206001600160a01b0386168085529252808320805460ff1916905551339286917ff6391f5c32d9c69d2a47ea670b442974b53935d1edc7fd64eb21e047a839171b9190a4506001610381565b6002600154036109f557604051633ee5aeb560e01b815260040160405180910390fd5b6002600155565b604080516001600160a01b038416602482015260448082018490528251808303909101815260649091019091526020810180516001600160e01b031663a9059cbb60e01b179052610480908490610a87565b610a588282610485565b6108c45760405163e2517d3f60e01b81526001600160a01b03821660048201526024810183905260440161059f565b6000610a9c6001600160a01b03841683610aea565b90508051600014158015610ac1575080806020019051810190610abf9190610d60565b155b1561048057604051635274afe760e01b81526001600160a01b038416600482015260240161059f565b6060610af883836000610aff565b9392505050565b606081471015610b245760405163cd78605960e01b815230600482015260240161059f565b600080856001600160a01b03168486604051610b409190610d82565b60006040518083038185875af1925050503d8060008114610b7d576040519150601f19603f3d011682016040523d82523d6000602084013e610b82565b606091505b5091509150610b92868383610b9c565b9695505050505050565b606082610bb157610bac82610bf8565b610af8565b8151158015610bc857506001600160a01b0384163b155b15610bf157604051639996b31560e01b81526001600160a01b038516600482015260240161059f565b5080610af8565b805115610c085780518082602001fd5b604051630a12f52160e11b815260040160405180910390fd5b600060208284031215610c3357600080fd5b81356001600160e01b031981168114610af857600080fd5b600060208284031215610c5d57600080fd5b5035919050565b60006080828403128015610c7757600080fd5b509092915050565b6001600160a01b03811681146108d257600080fd5b60008060408385031215610ca757600080fd5b823591506020830135610cb981610c7f565b809150509250929050565b600060208284031215610cd657600080fd5b8135610af881610c7f565b634e487b7160e01b600052601160045260246000fd5b808202811582820484141761038157610381610ce1565b600082610d2b57634e487b7160e01b600052601260045260246000fd5b500490565b8181038181111561038157610381610ce1565b600060208284031215610d5557600080fd5b8151610af881610c7f565b600060208284031215610d7257600080fd5b81518015158114610af857600080fd5b6000825160005b81811015610da35760208186018101518583015201610d89565b50600092019182525091905056fea2646970667358221220d13549ccea4042d9670f5983ec5b22599ceedeaad54a3f7b2d33e7732d88428864736f6c634300081e0033",
  "devdoc": {
    "errors": {
      "AccessControlBadConfirmation()": [
        {
          "details": "The caller of a function is not the expected one. NOTE: Don't confuse with {AccessControlUnauthorizedAccount}."
        }
      ],
      "AccessControlUnauthorizedAccount(address,bytes32)": [
        {
          "details": "The `account` is missing a role."
        }
      ],
      "AddressEmptyCode(address)": [
        {
          "details": "There's no code at `target` (it is not a contract)."
        }
      ],
      "AddressInsufficientBalance(address)": [
        {
          "details": "The ETH balance of the account is not enough to perform the operation."
        }
      ],
      "FailedInnerCall()": [
        {
          "details": "A call to an address target failed. The target may have reverted."
        }
      ],
      "ReentrancyGuardReentrantCall()": [
        {
          "details": "Unauthorized reentrant call."
        }
      ],
      "SafeERC20FailedOperation(address)": [
        {
          "details": "An operation with an ERC20 token failed."
        }
      ]
    },
    "events": {
      "RoleAdminChanged(bytes32,bytes32,bytes32)": {
        "details": "Emitted when `newAdminRole` is set as ``role``'s admin role, replacing `previousAdminRole` `DEFAULT_ADMIN_ROLE` is the starting admin for all roles, despite {RoleAdminChanged} not being emitted signaling this."
      },
      "RoleGranted(bytes32,address,address)": {
        "details": "Emitted when `account` is granted `role`. `sender` is the account that originated the contract call, an admin role bearer except when using {AccessControl-_setupRole}."
      },
      "RoleRevoked(bytes32,address,address)": {
        "details": "Emitted when `account` is revoked `role`. `sender` is the account that originated the contract call:   - if using `revokeRole`, it is the admin role bearer   - if using `renounceRole`, it is the role bearer (i.e. `account`)"
      }
    },
    "kind": "dev",
    "methods": {
      "getRoleAdmin(bytes32)": {
        "details": "Returns the admin role that controls `role`. See {grantRole} and {revokeRole}. To change a role's admin, use {_setRoleAdmin}."
      },
      "grantRole(bytes32,address)": {
        "details": "Grants `role` to `account`. If `account` had not been already granted `role`, emits a {RoleGranted} event. Requirements: - the caller must have ``role``'s admin role. May emit a {RoleGranted} event."
      },
      "hasRole(bytes32,address)": {
        "details": "Returns `true` if `account` has been granted `role`."
      },
      "renounceRole(bytes32,address)": {
        "details": "Revokes `role` from the calling account. Roles are often managed via {grantRole} and {revokeRole}: this function's purpose is to provide a mechanism for accounts to lose their privileges if they are compromised (such as when a trusted device is misplaced). If the calling account had been revoked `role`, emits a {RoleRevoked} event. Requirements: - the caller must be `callerConfirmation`. May emit a {RoleRevoked} event."
      },
      "revokeRole(bytes32,address)": {
        "details": "Revokes `role` from `account`. If `account` had been granted `role`, emits a {RoleRevoked} event. Requirements: - the caller must have ``role``'s admin role. May emit a {RoleRevoked} event."
      },
      "supportsInterface(bytes4)": {
        "details": "See {IERC165-supportsInterface}."
      }
    },
    "version": 1
  },
  "userdoc": {
    "kind": "user",
    "methods": {},
    "version": 1
  },
  "storageLayout": {
    "storage": [
      {
        "astId": 26,
        "contract": "contracts/SettlementDistributor.sol:SettlementDistributor",
        "label": "_roles",
        "offset": 0,
        "slot": "0",
        "type": "t_mapping(t_bytes32,t_struct(RoleData)21_storage)"
      },
      {
        "astId": 2973,
        "contract": "contracts/SettlementDistributor.sol:SettlementDistributor",
        "label": "_status",
        "offset": 0,
        "slot": "1",
        "type": "t_uint256"
      },
      {
        "astId": 5475,
        "contract": "contracts/SettlementDistributor.sol:SettlementDistributor",
        "label": "certificate",
        "offset": 0,
        "slot": "2",
        "type": "t_contract(ILotCertificate)5432"
      },
      {
        "astId": 5488,
        "contract": "contracts/SettlementDistributor.sol:SettlementDistributor",
        "label": "settled",
        "offset": 0,
        "slot": "3",
        "type": "t_mapping(t_uint256,t_bool)"
      }
    ],
    "types": {
      "t_address": {
        "encoding": "inplace",
        "label": "address",
        "numberOfBytes": "20"
      },
      "t_bool": {
        "encoding": "inplace",
        "label": "bool",
        "numberOfBytes": "1"
      },
      "t_bytes32": {
        "encoding": "inplace",
        "label": "bytes32",
        "numberOfBytes": "32"
      },
      "t_contract(ILotCertificate)5432": {
        "encoding": "inplace",
        "label": "contract ILotCertificate",
        "numberOfBytes": "20"
      },
      "t_mapping(t_address,t_bool)": {
        "encoding": "mapping",
        "key": "t_address",
        "label": "mapping(address => bool)",
        "numberOfBytes": "32",
        "value": "t_bool"
      },
      "t_mapping(t_bytes32,t_struct(RoleData)21_storage)": {
        "encoding": "mapping",
        "key": "t_bytes32",
        "label": "mapping(bytes32 => struct AccessControl.RoleData)",
        "numberOfBytes": "32",
        "value": "t_struct(RoleData)21_storage"
      },
      "t_mapping(t_uint256,t_bool)": {
        "encoding": "mapping",
        "key": "t_uint256",
        "label": "mapping(uint256 => bool)",
        "numberOfBytes": "32",
        "value": "t_bool"
      },
      "t_struct(RoleData)21_storage": {
        "encoding": "inplace",
        "label": "struct AccessControl.RoleData",
        "members": [
          {
            "astId": 18,
            "contract": "contracts/SettlementDistributor.sol:SettlementDistributor",
            "label": "hasRole",
            "offset": 0,
            "slot": "0",
            "type": "t_mapping(t_address,t_bool)"
          },
          {
            "astId": 20,
            "contract": "contracts/SettlementDistributor.sol:SettlementDistributor",
            "label": "adminRole",
            "offset": 0,
            "slot": "1",
            "type": "t_bytes32"
          }
        ],
        "numberOfBytes": "64"
      },
      "t_uint256": {
        "encoding": "inplace",
        "label": "uint256",
        "numberOfBytes": "32"
      }
    }
  }
}